:020000041000EA
:1000000000B5324B212058609868022188439860DF
:10001000D860186158612E4B002199600221596106
:100020000121F02299502B49196001219960352056
:1000300000F044F80222904214D00621196600F024
:1000400034F8196E01211966002018661A6600F04E
:100050002CF8196E196E196E052000F02FF8012189
:100060000842F9D1002199601B49196000215960AB
:100070001A491B48016001219960EB211966A021F2
:10008000196600F012F800219960164914480160C1
:100090000121996001BC002800D000471248134993
:1000A000086003C880F30888084703B5996A0420EC
:1000B0000142FBD001200142F8D103BD02B5186610
:1000C0001866FFF7F2FF186E186E02BD00000240BE
:1000D000000000180000070000035F00212200005C
:1000E000F4000018222000A00001001008ED00E03C
:1000F00000000000000000000000000074B24E7A12
:1001000000200420F7010010C3010010C5010010F9
:10011000C1010010C1010010C1010010C101001097
:10012000C1010010C1010010C1010010C701001081
:10013000C1010010C1010010C9010010CB01001065
:10014000CD010010CD010010CD010010CD01001037
:10015000CD010010CD010010CD010010CD01001027
:10016000CD010010CD010010CD010010CD01001017
:10017000CD010010CD010010CD010010CD01001007
:10018000CD010010CD010010CD010010CD010010F7
:10019000CD010010CD010010CD010010CD010010E7
:1001A000CD010010CD010010CD010010CD010010D7
:1001B000CD010010CD010010CD010010CD010010C7
:1001C00000BE00BE00BE00BE00BE00BEEFF3058054
:1001D000103800BEF2EB8871D48D0510F48D051037
:1001E0003802001090A31AE71E481F49086006C88D
:1001F00081F3088810471D480068002801D019487D
:10020000F3E70DA40ECC002902D000F012F8F9E7B4
:100210001749184A002000E001C19142FCD116495B
:100220008847164988471649884700BEFDE701C937
:1002300001C29A42FBD37047F48D0510E000002004
:10024000A0140020B4A10510000004200000042028
:10025000B4A10510001004200010042000000000CC
:10026000704700000000000008ED00E0000000D032
:10027000A014002090E3022061460010D502001077
:1002800021460010F8B5C04606480749091A8B10E8
:10029000C90FC91810B5491003D0044B002B00D06A
:1002A000984710BDA0140020A014002000000000FA
:1002B000054B10B5002B03D00449054800E000BFF2
:1002C000FFF7E2FF10BDC046000000000CCD00208B
:1002D000A0A30110F0B5D6464F464646C0B582B041
:1002E00007F0EBFC3E4B186007F0E7FC3D4B186055
:1002F00004F0D6FA14F0E2F9002803D03A4804F0EA
:10030000D3FAFEE714F0C6F8384804F0CDFA00F04E
:10031000A0F80B2000F0D8FED0231B06802212018B
:100320005A62334B02221A60324801F06DFF0022FC
:1003300004210A2007F0ACFF2F4C2060002201218D
:100340000A2007F0A5FF2D4B18602368002B43D02F
:10035000002841D080222A492A482B4B99460193F4
:10036000032300930023120109F08AFA80235B0023
:100370009A4626492648274B984601930225009520
:100380000023524609F07CFA23492448244F019760
:10039000012400940023802209F072FA21492248A6
:1003A000224E019600940023524609F069FA21007A
:1003B0004B46186809F004FB21004346186809F011
:1003C000FFFA2900386809F0FBFA2900306809F0C3
:1003D000F7FA09F0AFFAFEE7154804F065FAFEE710
:1003E00054E30220A8E20220A0A30110BCA3011044
:1003F00000E0044010270000F0E10020E03200207F
:10040000F4A301106D0E00103CE2022000A40110C4
:10041000150C0010F8CC00200CA4011039050010B8
:10042000DC32002024A40110350A0010F4E1002081
:10043000DCA3011010B504001F2100F053FD0022C1
:100440000021200000F068FD0021200000F028FEBF
:1004500010BD10B50AF034F91A20FFF7EBFF1B208E
:10046000FFF7E8FF162000F02FFED0231B068022A6
:10047000D2039A6200220121162000F04DFD10BD2A
:1004800010B5114B1B68E022D20113400F4A1360D4
:100490000220002101F0A6FE0D4B04221A600A4B37
:1004A0001B68DB05FBD5084B5B689BB2FA22520048
:1004B000934205D3074A934204D90120404200E009
:1004C000012010BD0020FCE700C0044000D0044023
:1004D00000E00440AC0D000010B5134B1A688023F7
:1004E0005B015340E022D2011340104A1360022006
:1004F000002101F077FE0E4B04221A600A4B1B68A4
:10050000DB05FBD5084B5B689BB2FA225200934295
:1005100005D3084A934204D90120404200E001205B
:1005200010BD0020FCE7C04600C0044000D00440DD
:1005300000E00440AC0D000070B584B0344C2000E5
:1005400000F0E6F93349200000F05AFA0F236B441B
:1005500000221A70002629E02F492D4800F050FA99
:100560000F236B4402221A7038E02C49284800F00F
:1005700047FA0F236B4401221A702FE028492448C0
:1005800000F03EFA0F236B4403221A702AE025493B
:100590001F4800F035FA0F236B4404221A7021E043
:1005A000642009F007FB642009F004FB1E4B186867
:1005B00001235B42009302330022012107F08AFBF2
:1005C0001A4B1B78002B1DD0FFF75AFF0500FFF7D1
:1005D00083FF0400012DBFD00135C6D0012CCDD042
:1005E0000134D4D00F236B441B78B342D8D00F24EE
:1005F0006C440F4B186800230022210007F08CFE8A
:100600002678CDE7084B1868012107F0F3FBCAE70D
:10061000002A002038A4011040A4011048A40110B1
:1006200050A401105CA40110A8E2022083E3022080
:10063000E032002010B582B0002400940AF0BEF928
:10064000831C07D0013003D10548049904F05CF9FC
:1006500002B010BD0348049904F056F9F8E7C0460B
:1006600064A4011084A4011000B585B003AA00237E
:1006700013705170C1784068034B00930223FFF759
:10068000D9FF05B000BDC04694A40110F0B589B0F3
:1006900005000E001400C8B22870D7B26F70D208DF
:1006A000D2B2AA70EB700E9B6B6050432861013090
:1006B00002F036FEE860002841D00130E86001AB6E
:1006C000AE221A7027325A70553A9A702832DA7070
:1006D000013F1F712B325A7100229A714032DA7138
:1006E0004D321A722A7A002A2BD0102101AB59728E
:1006F000A12199722731D972123119736400A6426F
:1007000021DDD83901AB5973812199737E31D973B9
:1007100026391974002A18D0222201AB5A74DB2220
:100720009A74AB3ADA7474321A7502325A75093215
:100730009A758F3ADA7500221A7600240DE0286146
:100740000EE01421D2E71221DCE7F122E5E701AB4C
:10075000195D2800FFF788FF0134182CF7D9012014
:1007600009B0F0BD10B503788B420DD9447894429E
:100770000AD9C468D00843435918635C0720104065
:10078000012282401343635410BDF0B5D6464F4654
:100790004646C0B58146884617009A46089E002501
:1007A00009E0E2194346E9184846FFF7DBFF013448
:1007B000B442F6D30135554501D20024F8E7E0BC38
:1007C000BA46B146A846F0BDF0B5DE4657464E469D
:1007D0004546E0B589B08246894693461E0012AA76
:1007E00008CA1078DA78824248D81A79824245D30A
:1007F0001978CC0807220A40511E8A41A218059296
:1008000000254A46039204932B00079024E001340C
:1008100064B27F08072C10DCFB07F8D5EA00A218A9
:1008200072435A4449467143039B9C466144009677
:1008300033005046FFF7A9FFE9E701239C46E04457
:100840000135059B9D4204D2049B42469F5C0024D7
:10085000E0E7069B0133DBB2049A52789A420DD945
:100860000499C9780798411A4A439946D2180599BC
:100870004A430532904600250693E2E709B0F0BCF2
:10088000BB46B246A946A046F0BD000010B582B0F6
:1008900004AC24780194034C0094FFF795FF02B058
:1008A00010BDC046DC01021030B585B0050002ABBA
:1008B00021221A70002159700278501E987022204F
:1008C000D8701971A97801395971402A01D00024D2
:1008D0000AE0202159701F329A70F8E702AB195DC7
:1008E0002800FFF7C1FE0134052CF7D9EB68013B66
:1008F00040221A70EA68013A2B690133E978686886
:10090000024C0094FFF796FE05B030BDA4A4011080
:1009100030B583B00400154D154928000AF024F8BD
:1009200003210E2000F0DEFA03210F2000F0DAFA96
:10093000002201210E2000F0EFFA002201210F20F9
:1009400000F0EAFA0023237200953C334022802114
:100950002000FFF79BFEE0682269002102F026FDDF
:100960002000FFF7A1FF03B030BDC046C80E002035
:10097000801A0600F0B5DE4657464E464546E0B5BD
:1009800083B083468A46160099462BE0013501372D
:100990003B78002B05D073009B19DA00D31AAB42C9
:1009A000F4D832006A4353009B185B008022D31AAC
:1009B0005B1098460024A5420FDD330063435900C5
:1009C000C918490041444B461B5D00933300524611
:1009D0005846FFF75BFF0134EDE7F3005344DBB209
:1009E0009A46B9464B461B78002B02D04F4600254D
:1009F000CEE703B0F0BCBB46B246A946A046F0BD68
:100A000070B504000D00C0682269002102F0CEFC20
:100A1000074B012200212000FFF7ACFF2B00022230
:100A200020212000FFF7A6FF2000FFF73DFF70BD4B
:100A3000B4A4011000B585B005E02B4803F034FFE5
:100A40002A4809F0B7F82A4B186801235B42009343
:100A500002330022012107F03DF9264B1B78002BC1
:100A60003CD0254B1A688023DB015340E022D201A1
:100A70001340224A1360224B04221A601E4B1B684B
:100A8000DB05FBD51C4B58680004000C02F098FBFA
:100A90001C4902F08EFB1C4902F071FB1B4902F05D
:100AA00074FB011C1A4802F06AFBFC21890502F064
:100AB00069FB02F0A7FB01000390164803F024FF36
:100AC0000122154B18680023524203A907F024FCA9
:100AD0000128B2D0114803F0E7FEB1E7044B1868D3
:100AE000012107F087F9AEE708A5011010270000E3
:100AF000A8E2022083E3022000C0044000D00440AA
:100B000000E004406740533A6ABC343F2D93E13A19
:100B10000000D841CCA40110F0E1002030A5011064
:100B200010B5111E03D1044803F0BEFE10BD0348EA
:100B300003F0EAFEFAE7C0465CA5011084A50110A7
:100B400010B5002903D1044803F0AEFE10BD0348E0
:100B500003F0DAFEFAE7C046B0A50110D8A50110EF
:100B6000F0B58DB005000800160003930BA913F033
:100B7000DBFA00281AD018F0ABFB071E0F4B1860E9
:100B800018D004AC1C220021200002F00FFC0495B8
:100B90000596039B06930A4B019400220092094A92
:100BA0000BA9380018F09CFB0DB0F0BD064803F00F
:100BB0007BFEF9E7054803F077FEF5E7C41F002048
:100BC000210B00105B070000F8A5011004A601101E
:100BD00030B585B0040093B20B4A1068002203922E
:100BE0000A4D02950125019500920A00210018F096
:100BF000C5FA011E02D1012005B030BD044803F042
:100C000083FE0020F8E7C046C41F0020410B0010FF
:100C100024A60110F0B5D6464F464646C0B594B05E
:100C20000023029300269A46002547E06B4803F014
:100C30003BFE6B4B6B4A6C496C48FFF791FF6C4B6A
:100C400001221A706B4B1868012107F0FDF8FA2099
:100C5000C00008F0AFFF250040E0674B1868002295
:100C600002A907F0BDFC002845D0029B634A03AEF1
:100C70004021300003F090FC6148310003F044FE55
:100C8000300019F045F902005E4B31001800FFF703
:100C90009FFF3E00A2462EE0042B07D15A4B3EE0B8
:100CA0005A4B3CE05A4B3AE05A4B38E0594B36E04D
:100CB000002C00D184E0642008F07CFF564B1868BB
:100CC00001235B42009302330022012107F002F866
:100CD000524B1C78002C01D0002DA7D04F4B1C7814
:100CE000002CE5D0424B1F78002FE1D008F00CF922
:100CF0000400002EB1D04A4B186800224F216944ED
:100D000007F06EFC00282DD04F236B441B78032B7B
:100D1000C6D0C1D8012BC5D0022BC5D1414B424A08
:100D200003A988464021404603F036FC3F4841462F
:100D300003F0EAFD404619F0EBF802003C4B414657
:100D40001800FFF745FFD0231B06984680231B01A0
:100D5000994643464A465A61322008F02BFF4346E3
:100D60004A469A615346E31A324A9342A3D9224B28
:100D70001868002202A907F033FC00289BD0029BD0
:100D80001E4A03AF4021380003F006FC2A48390010
:100D900003F0BAFD380019F0BBF80200194B390016
:100DA0001800FFF715FFD0273F0680231B01984648
:100DB0007B61322008F0FEFE4346BB61A2467AE723
:100DC0000B4B00221A700B4B1868012107F012F828
:100DD0001A4803F069FD260025006CE770A6011093
:100DE00088A6011098A60110A4A60110B4A60110AF
:100DF00083E30220A8E20220F0E10020C0A6011057
:100E0000C4A60110F4A6011060A6011054A601109A
:100E100044A6011068A6011054E302208DE30220CD
:100E2000E03200204CA6011014A7011018A70110F1
:100E300040A701102F7500005CA7011090A70110BA
:100E400070B504000D00064803F02EFD054B064A60
:100E50002900200013F0E0FB43425841C0B270BDAE
:100E6000B8A70110983A00000400400010B50AE04D
:100E7000124803F019FD124B01221A70114B186829
:100E8000012106F0E1FF0E4B1B78002B0FD10E481D
:100E900003F00AFD0D490E48FFF7D2FF0028E7D105
:100EA0000C4803F001FD0C4808F084FEEBE70B480A
:100EB00008F080FE0A4808F07DFEE4E70CA8011067
:100EC0008DE3022054E30220DCA70110F4A70110F7
:100ED00000A8011028A8011088130000B80B00001A
:100EE0001027000010B58300084A9A1814684022A1
:100EF000544080322240064CA44663441A60C0002D
:100F0000044B9C466044416010BDC04604C0014093
:100F100004D001400040014080000C4B9C466044DE
:100F200000290ED00823002A0DD0042213430268A2
:100F300053400C22134080225201944660440360C7
:100F400070470023EFE70022F0E7C04604C00140ED
:100F5000002906D08000064B9C46604402230360B3
:100F600070478000034B9C46604402230360F7E710
:100F700004E0014004F0014070B5D0231B061B685B
:100F8000094C9D002C59204207D1074D9B0004437A
:100F90005C510D2000F0A2FA70BD044B044A0548D4
:100FA000DB2103F041FBC0469CDF002054A8011068
:100FB000E003021080A8011010B50400D0231B0626
:100FC0001A680B4B9200D35818420BD00D2000F03A
:100FD00091FBD0231B061B6805499B005A58A2436E
:100FE0005A5010BD034B044A0448EF2103F01CFB88
:100FF0009CDF0020C8A80110BC03021080A80110CB
:10100000072303409B00C00899403C308000014BFF
:10101000C150704700400140F8B507000D001600B0
:101020001C00FFF7EDFFFB089B00E4180720384089
:1010300080008540002E05D080239B019C4664449F
:101040002560F8BDC0239B019C4664442560F8E7F9
:1010500070B506000D00141E0BD1D0231B061B68B3
:10106000002B11D0094B220029003000FFF7D4FFDC
:1010700070BD0D2000F0EAF90028EED1044B054ABE
:101080000548BD2103F0D0FA044BECE730410140A4
:10109000F4A801101404021080A8011000410140BE
:1010A000002906D08000064B9C4660444023036024
:1010B00070478000034B9C46604440230360F7E781
:1010C00004E0014004F0014010B501238340D02228
:1010D0001206936293610521FFF704FF10BD000023
:1010E00010B58023DB05186803051B0D0B4A9342DE
:1010F00007D10B4B034080229201934207D1000F8E
:1011000010BD084B084A0948222103F08DFA084B0C
:10111000054A0648232103F087FAC0462709000044
:1011200000F0FF0F20A901102C04021044A90110A7
:101130008CA901100FB400B583B0084803F0B4FBCC
:10114000049B002B07D005A90191180003F0BCFBFC
:10115000034803F0A9FB012003F044FAA0A9011001
:10116000ECF6011010B50148FFF7E4FFB0A901103B
:10117000EFF3108072B6034B1B68002BFBD0BFF35C
:101180005F8F70472C0100D0BFF35F8F024B0022AE
:101190001A6080F3108870472C0100D0F8B5060063
:1011A0000C001500FFF7E4FFE308F718F15C0722D5
:1011B0002240012393400B4205D1DBB20B433B702D
:1011C000FFF7E2FFF8BD21002800FFF7B3FFF0B5FD
:1011D00083B00600019114001F00FFF7C9FF00E073
:1011E0000134BC420CD8E308F518F35C0721214018
:1011F00001228A401A42F3D1D2B21A432A7001E086
:1012000001246442FFF7C0FF002C02DB200003B082
:10121000F0BD019B002BF9D00898FFF78BFF000071
:1012200070B505000C00FFF7A3FFE308EE18EA5CB9
:101230000721214001238B40134204D09A4332708E
:10124000FFF7A2FF70BD034B034A0448332103F0AC
:10125000EBF9C046C0A9011040040210E0A901103A
:10126000054A1078431CDBB21370172B02D9130008
:1012700010221A707047C046000E002010B5010001
:10128000024A034B1800FFF789FF10BD24AA011082
:10129000B81F002010B582B00100054C054B00932B
:1012A0001F2318222000FFF792FF02B010BDC04696
:1012B000B81F002044AA0110002307E0054A9A182D
:1012C0009200BFF35F8F0021116001331F2BF5D90E
:1012D0007047C04640000034074B9B6810308000C8
:1012E0001950BFF35F8FBFF35F8F044B002119606C
:1012F00082F310887047C04600ED00E0240100D062
:101300000048704700E400E010B5FFF7F9FF002344
:1013100002E0034A04C00133072BFAD910BDC046CE
:10132000808080801F23181A7047000010B5038842
:10133000DA0A1C2A05D15B055B1502335B00C01875
:1013400010BD034B034A16210348FF3103F06CF92B
:1013500060AA01109C04021078AA011010B5091AA5
:101360000B1F0A4A88180A4A904208D8C90706D4AF
:101370005B105B055B0D0748184380B210BD064B40
:10138000064A08210648FF3103F04EF9FC07000029
:10139000FE0F000000E0FFFFBCAA01109004021045
:1013A00078AA011010B5091A04394A08090B08D1A6
:1013B0004905490D064B0B430380064B13434380FD
:1013C00010BD054B054A10210548FF3103F02CF9EB
:1013D00000F0FFFF00F8FFFFECAA01106C04021000
:1013E00078AA011001238340034A10681840431E65
:1013F0009841C0B27047C04600E100E0002A05D025
:10140000044BC0225200995019607047014A802352
:10141000D150FAE700E100E010B50A001F230340B5
:10142000012199404009FFF7E9FF10BD01238340E6
:10143000014A13607047C04600E200E0024B9B681F
:1014400010308000C058704700ED00E010B5FFF785
:10145000F5FF002806D0044B984201D0012010BDB2
:101460000020FCE70020FAE7CD01001010B5FFF7DF
:10147000E5FF044BC31A00202F229A424041C0B21C
:1014800010BDC046040E002070B504000D00EFF33F
:10149000108672B60C4B1B68002BFBD0BFF35F8F1E
:1014A0002000FFF7CBFF094B984201D0A84205D19D
:1014B000320029002000FFF70FFF70BD044B054AE2
:1014C0000548E72103F0B0F8240100D0CD01001059
:1014D000FCAA0110C404021078AA0110F0B5DE467F
:1014E00057464E464546E0B589B081460191150004
:1014F000EFF3108B72B66F4B1B68002BFBD0BFF362
:101500005F8F6D4B00269E57002E40DB7400A419A0
:10151000A4006A4824180622A256674B1A70684B2A
:101520009A684B4610339B00D35898461B1A2F2BB2
:101530003BD9644B984531D105AF634B3B80634940
:1015400073009A46981980005C4B984640440230DC
:10155000FFF704FF78805E4BBB80FF23BB71FD71FA
:10156000019B0793330053449B00434407CF07C3B9
:1015700001231C43A0465A4641464846FFF7ACFEAD
:1015800009B0F0BCBB46B246A946A046F0BD514BDF
:10159000514A74215148FF3103F046F8504B4E4AEE
:1015A000BD214E48490003F03FF8012342469A43CB
:1015B0009246101A0C2101F02FFA00290FD1534640
:1015C0000027DA79AA4212D90621595600290DDBE3
:1015D0004A005218920039491F008B18F1E7414B1D
:1015E0003D4A8C213D48FF3103F01EF81F00002FBB
:1015F0002ED005AB3C4A1A80813A5A800623FB560E
:101600000293002B17DA394805AB9A469880029A64
:101610009A71DD71019A0792381D2100FFF79EFE35
:10162000B880BE71254B7200921992009B185246E9
:1016300013CA13C39FE7381DFFF778FE010070003F
:10164000801980001D4BC0180430FFF787FEDBE7D0
:1016500005AF1D4B3B801D49730002939B199B00F6
:10166000164A90461A0042440392901CFFF776FEF9
:101670007880039A101D5146FFF770FEB8801C4B0E
:1016800052464146521A524153431B0DBB71FD71E4
:10169000019A0792029B9B199B00434407CF07C303
:1016A000114B52461380813B538001231C43A046BB
:1016B00061E7C046240100D080E30220040E002030
:1016C00000ED00E0CD01001000A1FFFF340E00206E
:1016D00001BDFFFF34AB0110AC04021078AA011069
:1016E0005CAB011084AB01100148000001BD00009B
:1016F000AAAA0000F0B5CE46474680B583B00600E2
:101700000D00EFF3108872B64F4B1B68002BFBD017
:10171000BFF35F8F4D4B9A6834001034A300D75845
:101720004B4B9F4207D0AF4200D18AE00197494B13
:10173000FB1A2F2B09D9424639003000FFF7CCFDA8
:1017400003B0C0BCB946B046F0BD3000FFF74AFE5A
:10175000814600213000FFF75FFEBFF35F8FEFF39C
:101760000581002901D08C4211D10123019C9C43A9
:101770000020A3689D4212D00622A256002A0DDB4B
:1017800053009B189B00334A2000D418F1E7324BDA
:10179000324AFA213248FF3102F046FF20009D42D2
:1017A00049D106256557002D2BDB2A4B6A005219BB
:1017B00092009B189A68A260DA79E2719B795BB219
:1017C000A371002B0FDA2748A080224B6A00521920
:1017D00092009B18244A117899711570494630007F
:1017E000FFF71AFEA7E7680040198000194BC018E0
:1017F0000430FFF79BFD0100231D1800FFF7AEFD2D
:10180000E2E7002912D100280ED0FF238371174B85
:10181000838015490B78A3710E4A154BA41A6441B5
:1018200063431B0D0B70D9E7094FF2E71149201DE7
:10183000FFF7B8FDD2E7104B084A09480F4902F0FC
:10184000F3FE034F77E7C046240100D000ED00E02F
:10185000CD010010040E002008AC01107C04021021
:1018600078AA011001BD000080E3022001BDFFFF46
:10187000AAAA00003E0E00203CAC01103B02000072
:1018800070B505000C00FFF73BFDAB089B00C218CC
:10189000116803232B40DB00FF20984081439C40CC
:1018A0002143116070BD0000F8B5012202432D4BA9
:1018B000D31A2F2B28D8EFF30583002B2BD0EFF36F
:1018C000108472B6284909680029FBD0BFF35F8FE6
:1018D000244D26490600761B76417143090D4DB211
:1018E000234989689B00C95891421AD000210329D5
:1018F00031D81C4B4A00521892009B189B795BB25E
:10190000AB421ED00131F2E71A4B1B4A9D211B4806
:10191000890002F089FE1A4B174A1848194902F04B
:1019200083FE134A92681849D150184B1A78827175
:101930001D70BFF35F8F0C4B00221A6084F3108878
:10194000F8BD084B4A005618B6009E19FF27B7711C
:101950000F4AB280E9E70F4B074AA22107488900E6
:1019600002F062FE040E0020240100D0AAAA0000AA
:1019700000ED00E044AC01105004021078AA011000
:101980006CAC011077020000CD01001080E3022052
:1019900001BDFFFF78AC011010B5FFF7C3FC0100DB
:1019A000024B1800FFF73CFC10BDC0468CE3022040
:1019B00010B582B00100074C074B009305230022AD
:1019C0002000FFF704FC002801DB1F23181A02B0D7
:1019D00010BDC0468CE3022080AC011070B504003D
:1019E0000E001500FFF73CFC0100200000F006F897
:1019F000A680E580BFF35F8F70BD0000024B9C4660
:101A000061448900016070474000003410B5040053
:101A1000FFF726FC01002000FFF7F0FF01235B42E7
:101A20006360BFF35F8F10BD10B50400FFF718FCB3
:101A300001002000FFF7E2FF01235B426360002307
:101A40002372BFF35F8F10BD10B50D4C09E00D4B35
:101A50000D4A0E481A2102F0E7FD2000FFF7D6FFDD
:101A600008340B4B9C4209D22368002BF5D0012B84
:101A7000EDD12000FFF7D8FF0C34F2E710BDC046CF
:101A8000901400209CAC011058050210BCAC011051
:101A9000A0140020034B9C46614489000160BFF301
:101AA0005F8F70474000003410B504000120FFF73D
:101AB000F1FB01002000FFF7EDFF10BD30B5846A97
:101AC000151B0B1D9B001B581B1B9D4204D3046A56
:101AD00001238B40234202D1043189000A5030BDDA
:101AE0000004084370470000F0B5DE4657464E46F6
:101AF0004546E0B587B0EFF3058303221A409246CE
:101B0000AE4B9200D7583B78534507D1012352463C
:101B100093409946AA4B4A461A6025E1A94BAA4A26
:101B2000AA48922102F080FD7A6973009B19DB00BC
:101B30009046984443469C68DD68A54800F046FC02
:101B4000001BA941002900DA16E1002D74DB434691
:101B50001B699B469F4B9B454FD00823F85E43462D
:101B6000598889B2FFF7BCFF43465969D8470290AC
:101B700003910299039A0B00100013435CD01300E9
:101B80000A00002847DAA41A9D41009401954346B3
:101B9000009C019D9C60DD600021595E002900DAF7
:101BA000EAE078694B005B18DB00C3189A68DB68D1
:101BB000A41A9D41002D00DADEE039813D00083590
:101BC000844604912A000597B346009E019F049B1A
:101BD000002B2ADB0023D45E63001B19DB00634467
:101BE0009C68DD6830003900001BA94100291CDB1E
:101BF0001A000021595E0491E9E743465B699B4660
:101C00001B6958469847002816D05B461A685B68DF
:101C100002920393ADE76E4800F0D8FB029B039C51
:101C20001B184C4100930194B1E70499059F5E464F
:101C30004346198016809FE0434600229B5E3B810D
:101C40003A69EFF3108372B611680029FCD0BFF334
:101C50005F8F02217A5E41460A807E803A69BFF337
:101C60005F8F0021116083F3108885E03969EFF3FD
:101C7000108372B60A68002AFCD0BFF35F8FB88861
:101C800000B201225242BA803A69BFF35F8F00214D
:101C9000116083F310880500BC461CE00493002209
:101CA0009A5E002A0EDB049B0021595E4B005B18F4
:101CB000DB0063449868D96834003D00241A8D41E4
:101CC000002DEBDA04995D46009B9C4644460D804E
:101CD0000023E55E2280002D12DB634658696C000C
:101CE0006419E4000419A668E7686146083108220F
:101CF0009A5EAB46049163460093A0468446D0E7C3
:101D000067463EE00023BB71390008310823F85EC6
:101D10000EE001246442E5179460D56008243B5F1F
:101D2000834204D00E8008243B5F1380388130004A
:101D3000431C29D07C6943001B18DB00E218E65ED7
:101D400053881BB2002BE4DB1100F0E722002B00CC
:101D500051461F48FFF7B2FE1D4800F037FB241A1A
:101D60008D41002D22DC1FD0194B4A465A630823AF
:101D7000FE5E002E00DBD7E6BB881BB2002B00DB2B
:101D800074E7BB79002BBDD10823FA5E002A0DDB76
:101D9000796953009B18DB00CB189C68DD68631CD5
:101DA000D4D16B1CD8D0D1E7002CDDD040BF07B018
:101DB000F0BCBB46B246A946A046F0BD2CCD0020E3
:101DC0003C70054050AD0110980502107CAD01102B
:101DD00000400540E91A001070B504000D00110024
:101DE0000126AE4006622800FFF74EFB01212800C5
:101DF000FFF712FB024B9C466444266070BDC04650
:101E000038200000F8B5CE46474680B50600894622
:101E100090461F00C160FFF723FA154B9C466044B3
:101E20008000306143463370BBB27381D02212060A
:101E300012787270012252423281B2809B187380F4
:101E4000002406E0621E736965002D19ED005A53E7
:101E50000134BC42F6D3074B42469200D650064AA4
:101E600041464846FFF7B8FFC0BCB946B046F8BD8A
:101E7000400000342CCD0020E91A001070B50C0091
:101E8000150001238B400362074A944660440360B7
:101E900001212000FFF7C0FA29002000FFF72AFCEB
:101EA000200000F07BFA70BD3830000010B5084B00
:101EB0001A68EFF3108172B61368002BFCD0BFF3E1
:101EC0005F8F034805F010FE0020002110BDC046C2
:101ED000C0E1002010B5064B1B69002B01D004485F
:101EE00010BD044B044A0548652102F09DFBC04625
:101EF0004C0E0020BCAD0110800502107CAD01101D
:101F000070B505000E00182001F00AFA041E0ED06C
:101F10001821300001F01AFA60610121280000F058
:101F200045FA0200330029002000FFF76BFF200074
:101F300070BD000010B50400134B984215D0017815
:101F4000124AC068FFF79AFF2378114A99008A580D
:101F5000A24211D10E4A9B0000219950606901F004
:101F60000DFA200001F00AFA10BD0A4B0A4A2E2190
:101F70000A48FF3102F058FB094B074A99210748EC
:101F8000490002F051FBC0464C0E0020E91A001037
:101F90002CCD00203CAC01106C0502107CAD011072
:101FA000E0AD0110F8B504000569EFF3108072B6DA
:101FB00029680029FCD0BFF35F8F0221665E656946
:101FC00071008919C9006D18002E02DB0027E95F36
:101FD00061802169BFF35F8F00270F6080F3108855
:101FE000002E2CDB0699296107996961AA60EB60D4
:101FF0006B8801335B04590C002B00D101216980EF
:102000003000FFF76DFD2169EFF3108372B60A68A7
:10201000002AFCD0BFF35F8FA2882A80A6802269A5
:10202000BFF35F8F0021116083F31088E36821788C
:1020300001228A4003498C4663441A60F8BD01209E
:102040004042FBE73C20000070B582B0060014005F
:102050001D0008AB1B78002B07D100F0CDF9220042
:102060002B00121A8B41002B0ADB079B0193069B66
:10207000009322002B003000FFF794FF02B070BDE8
:102080000020FBE7F0B5C64600B584B005008846E1
:1020900016001F000AAB1C78FFF71CFF0294019783
:1020A00000962A004346FFF7CFFF04B080BCB84635
:1020B000F0BD000030B504000A1443899A422EDABC
:1020C000406953009B18DB00C3182569EFF31082A9
:1020D00072B628680028FCD0BFF35F8F588885B29D
:1020E0000904090C884212D000202369BFF35F8FD6
:1020F0000021196082F31088002811D0E36821784C
:1021000001228A4007498C4663441A6008E0064968
:10211000294389B259800123A3710120E5E70020FA
:1021200030BDC0463C2000000080FFFF10B5040019
:10213000FFF7D0FE2100FFF7BDFF10BD40787047CC
:10214000F0B583B006000F00EFF30583002B1AD122
:1021500096246442E517A4197D418D4202D803D12B
:10216000844201D90024002500F046F922002B000A
:10217000121A8B41002B0BDC08D03000390000F024
:1021800043F903B0F0BD1348FEF7D4FF002AF4D0A2
:10219000114A0023009320002900FFF773FF002855
:1021A0000DDAEAE70D4B1A68EFF3108172B6136887
:1021B000002BFCD0BFF35F8F084805F02FFC084BC5
:1021C0005B6A9D42EED80649896AA142D5D29D42FA
:1021D000D3D1E7E720AE0110AD1E0010C0E1002012
:1021E0000040054070B504000D0000F005F900192D
:1021F0006941002902DBFFF7A3FF70BD01204042C7
:102200000049F8E7FFFFFF7F10B5FA229200002394
:10221000002100F097FFFFF7E5FF10BDF0B5CE46B7
:10222000474680B583B005000C00EFF30583002B13
:1022300015D03F4B5B6A8B4209D33D4A926A82427A
:102240000BD28B4201D0012002E0002000E00020F0
:1022500003B0C0BCB946B046F0BD0120F8E7FFF7B7
:1022600039FEC3689946037898462E0027004846F1
:1022700000F0ACF802000B00B61A9F41434604334D
:102280009B004A469B581B1A0022BA420FDC0CD016
:1022900020BF274B5B6A9C422DD8254A926AAA42EE
:1022A0002BD29C4225D00120D2E7B342F0D9214A5B
:1022B0000023009328002100FFF7E4FE00281EDD24
:1022C0001B4B5B6A9C4205D8194A926AAA4202D209
:1022D0009C4200D120BFFFF729FF154B5B6A9C424F
:1022E00021D8134A926AAA421FD29C4219D00120D7
:1022F000AEE70020ACE70020AAE70120A8E70C4BDE
:102300005B6A9C4209D80A4A926AAA4207D29C4256
:1023100001D001209CE700209AE7002098E70120E7
:1023200096E7002094E7002092E7012090E7C0465E
:1023300000400540AD1E00100048704700400540B9
:1023400010B50B4B1B69002B04D00A480A21FFF77C
:1023500055FB10BDFFF7F0FF0400032100F00CF85F
:102360000348102303222100FFF74CFDEDE7C04690
:102370004C0E0020C0E1002010B5024A0248FEF7D2
:102380000DFF10BD70AE0110BC1F002010B502483B
:10239000FEF746FF10BDC046BC1F002010B501006F
:1023A0000148FFF7F3FF10BD0040054000B583B0C2
:1023B0000448054B009303230022FEF708FF03B0F7
:1023C00000BDC046BC1F002094AE01100200436A4D
:1023D000906A1900536A9942FAD17047416A00E045
:1023E000416A9942FCD300E0416A994202D1816A74
:1023F0009142F9D37047000010B50248FFF7E6FF9D
:1024000010BDC0460040054010B502000B00024858
:10241000FFF7E4FF10BDC04600400540F8B5D646C2
:10242000474680B506000D00170098464400241862
:10243000A400294B9C4664446368089A934200D2E6
:102440006260331FDBB29A46012B2ED98022120123
:10245000C0239B01E3181A60204BB200D158002919
:1024600007D0586900F0D8FA013043001B18033B2D
:10247000FDD27F0123685F40E0233B408022520170
:10248000A21813605346012B1AD980239B01E3182D
:10249000802212011A60089B6360104BB60042460E
:1024A000F250C0BCBA46B046F8BD012DCED10322D1
:1024B000C0239B01E3181A60A368DB07FCD5D8E7AB
:1024C0002168694003230B401360A3680122AA40DE
:1024D0001A42FAD0D9E7C04600800040C81F002049
:1024E000F0B583B005000E0017001800089900F041
:1024F00093FA0300089A140200943A00310028006D
:10250000FFF78CFF03B0F0BD10B582B080246400EB
:102510000094FFF783FF02B010BD0000014B800064
:10252000C0587047C81F0020F0B5C64600B504006B
:102530000E0017001D00374800F06EFA8046364B3B
:10254000FA18364B9A4239D80100380000F064FA84
:102550000200103A98235B009A4235D86B1E062B76
:1025600038D8069B013B062B34D83F09474537D363
:102570002D04069B1B031D432368002B36DB284BD1
:102580009C4244D00C2201239340264A1360264AE1
:102590001360264A1268190091430A1EF9D1266079
:1025A000A060234BE31821321A602268002AFCDA6B
:1025B000E56008221A6080BCB846F0BD1D4B1E4A7B
:1025C0001E48112102F030F81D4B1B4A1B481921EF
:1025D00002F02AF81B4B184A18481C2102F024F874
:1025E000194B154A1548232102F01EF822683F2393
:1025F0001340B342C3D1A3681B051B0D8342BED158
:10260000E368EE22D2021340AB42B8D1D3E70D22E9
:10261000B9E7C046001BB70080E84BD380F8A93269
:1026200000C0024000E0004000F0004008C0004050
:1026300004300000A8AE0110B8050210F8AE011079
:102640003CAF011058AF0110A4AF0110024B1A6843
:10265000024B5A607047C046E832002000800540B7
:1026600010B5184B8022D2051A60174B174A1A6012
:1026700000290AD0164BE022D2041A60002809D1A2
:10268000134B802212061A6010BD0E4BE022D204BA
:102690001A60F3E743011B1A9B001A18D2000D4978
:1026A0000A6018180001086080235B04984201D377
:1026B000094A0A60FFF7CAFF054B8022D2051A605B
:1026C000E2E7C04600B0054008200140FCFF0100E1
:1026D00000A00540E8320020FFFFFF0010B5030016
:1026E00010000C4A8024E4051460002B0DD0012258
:1026F0001343094A094CD461094C5C40146251628D
:1027000093620021FFF7ACFF10BD034B0022DA619A
:10271000F7E7C04600B0054000800540D3C007B0D1
:102720002D3FF84F80239B000B43014AD362704733
:102730000080054010B5010018231B881422108862
:10274000984710BD10B5010018231B881622108869
:10275000984710BDF0B5C64600B507000E0000252D
:102760000123984600E00135B5420AD2AC003C197D
:102770002068FFF7DFFF20600028F4D1002398468F
:10278000F1E7404680BCB846F0BD000070B50400DB
:102790000D000648FFF7CEFF0300002C03DB0120ED
:1027A000A040290098470020FBE7C04655420000A2
:1027B000074BAA2212011A608D225200DA60054BE3
:1027C000054A1A60024B5B68002BFBDA7047C04673
:1027D000004002400060024000B0FA0010B5040062
:1027E00001E008CC9847024B9C42FAD310BDC0468A
:1027F00094A301107047000010B50248FFF7EEFFE8
:1028000010BDC04658A3011010B50248FFF7E6FFFF
:1028100010BDC0468CA30110054B064A1A60064B3A
:10282000064A1A60064B1A68044B9343FAD1704764
:1028300000E00040BFCDFBFE00F00040FE7F3C000A
:1028400008C00040044BDB6C002B03D1034B8022FB
:10285000D2021A607047C046000011504C2011503F
:10286000044B054A1A60054B1B68DB43DB01FAD1B8
:102870007047C04600F00040FFFFFF0108C0004065
:10288000034B40229A675A671A67DA667047C04658
:1028900000F0014010B5FEF70FFD10BD70B5044DFE
:1028A000A968044CC022200000F086FDAC6070BD19
:1028B00000ED00E00000002070B50420FFF72EFEC0
:1028C000064900F0A9F805000024002C00DD70BDC9
:1028D000E0B22900FFF726FF0134F6E740420F007F
:1028E00030B583B0274B00229A67FFF761FF264B74
:1028F00001221A60234B5B6C012BFBD1234B03227B
:102900001A60204B9B6B012BFBD1013300930433E6
:102910001F4A01211F48FFF707FE052300931E4AA7
:1029200001211E48FFF700FE1D4B0022022104205A
:10293000FFF7EAFD1B4D2B00002201210520FFF7C8
:10294000E3FD194C2300002200210720FFF7DCFDE6
:102950002300002200210820FFF7D6FD8023DB00A2
:1029600000932300002200210920FFF7B9FD2B006E
:10297000002200210620FFF7C7FDFFF79DFF03B0EF
:1029800030BDC046008000403CB0004030B0004048
:10299000002F685900800240008C864700C002402A
:1029A000001BB70040597307006CDC02014804218A
:1029B000014B1847700E002055270010014B9B68F3
:1029C00018470000700E0020124A936F9B0815D222
:1029D0009066D166002905D0FFE7FFE7FFE7516F5A
:1029E000106F704704B580210906C21751400028B6
:1029F00000D0C84317F048FC002104BDF0B5146EA8
:102A0000556E576F166FFFF7E3FF146655665767ED
:102A10001667F0BD000000D0114A936F9B0813D2D7
:102A200010665166002905D0FFE7FFE7FFE7516F09
:102A3000106F704704B5002801D00020C04317F084
:102A400023FC002104BDC046F0B5146E556E576FCF
:102A5000166FFFF7E5FF1466556657671667F0BDFA
:102A6000000000D094464A4A926F9208624601D212
:102A700028E0C046F0B5464E346E756E776F366FFF
:102A800000F020F89446424A146655665767166768
:102A90006246F0BD94463E4A926F9208624601D269
:102AA00054E0C046F0B53A4E346E756E776F366FAF
:102AB00000F04CF89446364A146655665767166718
:102AC0006246F0BD002B24DB11D000293EDA00B5B0
:102AD000C943404200D1013100F038F8C9434042B7
:102AE00000D10131DB43524200D1013300BD002A45
:102AF000EBD1002801D1002905D00020C90FC9075A
:102B000001D1C043410800B517F0A6FB0022002305
:102B100000BD00B500290ADBDB43524200D101337E
:102B200000F014F8C943404200D1013100BDC9434F
:102B3000404200D10131DB43524200D1013300F069
:102B400005F8DB43524200D1013300BD002923D1F7
:102B5000002B18D1002A0CD0BC460D4F38667A667F
:102B600000210023FFE7FFE7FFE77A6F386F674632
:102B70007047002801D00748010000B517F06CFB32
:102B80000022002300BD02000B000020002170473E
:102B9000000000D0FFFFFFFF002B00D0BFE0130CB0
:102BA00028D1002AE7D080B4114F39667A66FFE752
:102BB000FFE730B4040C7B6F396F1B0423433B6683
:102BC0007A66FFE7FFE7FFE7C04684B27B6F3D6FA1
:102BD0001B0423433B667A66FFE7FFE7C0460023FA
:102BE0002C042D0C7A6F386F00196941B0BC704706
:102BF000000000D0F0B594460025140E01D1120259
:102C00000835140F01D112010435940F01D192003F
:102C10000235D40F01D152000135D40B0134254FB8
:102C20007C66254C3C660E0C93B2FFE7FFE7FFE79E
:102C30003C6F6643360C7703BE467343DF0B5B0481
:102C4000C01AB941130C7343DB18C91ACE08664386
:102C5000360CB64493B273431F0F1B01C01AB9411F
:102C6000130C73431F0B1B05C01AB941860D8F024D
:102C70003E436643360C092D24DB520A7243801A08
:102C80007703460A6643360C16235B1BDE40DF40A3
:102C9000BF1964466643821B704604350633010043
:102CA000D940A840C01900D30131A24206D2002366
:102CB000F0BD0000000000D0FFFFFFFF121B01303D
:102CC000F3D3F1E709277F1BFE406446A2B27243AB
:102CD000801A00D20139220C7243130C1204821A9A
:102CE00099410B007046043513370100F940A840A4
:102CF000801900D30131002B02D1A2420AD2F0BDCB
:102D0000013000D30131121BFAD2013BF8D1A242AB
:102D100000D2F0BD013000D30131121BF7E7F0B54E
:102D20001C0C00D080E00CB400251C0A04D11B024E
:102D3000160E3343120208351C0B04D11B01160F6B
:102D40003343120104359C0B04D19B00960F33438F
:102D500092000235DC0B02D192185B4101351C0058
:102D6000971864410134464F7C66464C3C660E0C15
:102D7000FFE7FFE7FFE7C0463C6F6643360C77038B
:102D8000BE4697B27743C01B00D20139C01B00D2A8
:102D900001399FB27743C91BC91B170C77437E04C7
:102DA000FF0B801BB941CE086643360C0C2D33DB7C
:102DB000B644120B1F053A431B0B97B27743C01B57
:102DC00000D201399FB27743C91B170C77433E04E9
:102DD0003F0C801BB941860D8F023E436643292775
:102DE0007F1BFE400C3D7746AF40BF1930BCA2B2FE
:102DF000ABB272437343801A9941220C7243130C95
:102E00001204801A994102000B000137001BA941EE
:102E1000F9D2781E0021F0BD0C277F1BFE407746BB
:102E20007F0BAF40FF19E0E700245D1C07D0144F73
:102E30007D663966FFE7FFE7FFE7FFE73C6F95B286
:102E40009EB265436643401BB141150C1E0C6543A1
:102E5000664336042F0C3E432D04401BB14199427A
:102E600004D202000B0020000021F0BD01D19042ED
:102E7000F7D3801A994101349942F2D3F6E7000062
:102E8000000000D0FFFFFFFF48404140484018B419
:102E9000134B5B68019308BD18B4114B1B68019379
:102EA00008BD94460F4A926F920805D2624618B444
:102EB0000B4BDB68019308BD0A4AF0B5146E556EE2
:102EC000576F166F6246FFF7F2FF064A14665566A3
:102ED00057671667F0BD18B4014B9B68019308BD96
:102EE000B8DF0020000000D0FFB550404240504005
:102EF00059404B40594000E0FFB5154F4C00640D60
:102F000003D0BC4204D10C0314D80020090D0905DC
:102F10005C00640D03D0BC4204D11C030AD800221B
:102F20001B0D1B0501264B4009D44B4003D58B429A
:102F300000D18242FFBD9942FCD19042FFBD0B43BC
:102F4000DB1803431343F5D0C9434918FFBD000004
:102F5000FF07000000B5FFF7CFFF804100BDC0466E
:102F600000B5FFF7C9FF01D9002000BD012000BD59
:102F700000B5FFF7B9FF01D9002000BD012000BD59
:102F800000B5FFF7B1FF804100BD012040054A00B8
:102F9000121804D85A00121801D8002070470120D6
:102FA000704700000021002805D17047C117484034
:102FB000401AFAD0C90713B5064B1B6898470CBCDA
:102FC000441CA2401005120B0349091B09051943B3
:102FD000114310BDBCE000201F04000010B54C00E0
:102FE000620D8023D218DB00D21A5B057E2A10DD29
:102FF0009E3A13DACC170903490819435242D140CB
:10300000640001341532202A05DAD04008436043B9
:1030100010BD002010BD0846604310BDC80FC01889
:10302000013810BD18B4024B5B6A019308BD000063
:10303000B8DF002010B50148FEF77CF8C0AF0110E2
:1030400070B513231C78012C12D0012C12DC214BFB
:10305000214A93642148FFF76DFB214B186070BD36
:1030600020491D4A9800815001331F2BF8D9ECE705
:103070000023FAE71C48FFF765FB05001B48FFF734
:1030800061FB023803789B007F2B09DD1248802208
:10309000290000F091F9022C08D0022CDADCD6E7E6
:1030A000134B144A1448332101F0BEFA134B1A880B
:1030B000B5231B029A4209D1114B1A88114B9A422F
:1030C00004D1114B1A88114B9A42E6D00020FEF72A
:1030D00031F8C04611310010B8DF00204C33000039
:1030E000BCE000203530001053440000534600007F
:1030F000D8AF0110C40502101CB0011054380000F4
:10310000D8380000494600009C38000059460000AD
:1031100007B56046002800D100BE01880A0A0230C7
:10312000DF2AFAD1C9B2820804D302884088000499
:10313000104300E00068024A5050039007BD0000B1
:10314000B8DF002051434343C9188C46110C83B2A9
:103150004B4310B4040C614392B280B250436243BB
:103160001C041B0C001910BC59411304120CC0188C
:1031700051416144704700004840414048400E4B77
:103180005B6818470C4B1B6818470C4A936F9B08E9
:1031900002D2094BDB681847F0B5146E556E576FB5
:1031A000166FFFF7F6FF054A1466556657671667F0
:1031B000F0BD014B9B681847C0E00020000000D024
:1031C000C10FC90700D54042002817D0F44603B408
:1031D0000B4B1B68984706BC81409E3840428031AB
:1031E00007D20B0607D04900490AC005104308431F
:1031F00060470130F8E7490A8902F5E770470000A7
:10320000BCE0002041000A0E80231B067E2A0BDD55
:103210009E3A0BDAC1174002400818435242D04090
:10322000490001314843704700207047C00FC01863
:1032300001387047C0420DD300B54000400800215E
:1032400000F00EF8002801D4404200BD80200006A6
:1032500000BD0000014BDB6918470000C0E0002002
:10326000014B5B6A18470000C0E0002010B5014820
:10327000FDF760FF80A4011070B513231E78184875
:10328000FFF760FA0500012E11D0012E09DDAB1EFB
:103290001B789B007F2B1DDD12488022290000F047
:1032A0008BF81148FFF746FA104B186070BD0D48B7
:1032B0005422290000F080F8002300E001331F2B86
:1032C000E3D8084A9C00A258002AF7D10849054AC9
:1032D000A150F3E7074B084A0848422101F0A4F93E
:1032E00053460000C0E000204C330000BCE000204A
:1032F0006D32001074B00110D8050210A8B0011092
:1033000010B5002804D04018034B984200D810BDD7
:103310000248FDF70FFFC04600000420FCB001107A
:1033200070B50500084E300017F006F8280016F0BA
:1033300001FA0400300016F087FF29002000FFF793
:10334000DFFF200070BDC04690140020F8B50600D5
:103350000C00094F380016F0EFFF2100300016F086
:1033600089F90500380016F06FFF2100714328002D
:10337000FFF7C6FF2800F8BD9014002070B50400C8
:10338000054D280016F0D8FF200016F0DDF92800C2
:1033900016F05AFF70BDC046901400200148042169
:1033A000014B1847800E002055270010014B1B6869
:1033B00018470000800E0020014B5B681847000092
:1033C000800E00209A4200D288547047704710B592
:1033D000002802D00B684968984710BD0100002002
:1033E00007E083001B185B00501C08601078C018B1
:1033F00030380A681378303BDBB2092BF1D97047BB
:10340000F0B5DE4657464E464546E0B583B0934696
:103410001F000C9B9A460D9C0E9B99460F9B9B0789
:1034200017D0B8460F00060022E0551C4B46414617
:103430002020B84701342A00B442F6D33D004F465D
:103440005C46019B9B46B1464646B84637002E0077
:103450000EE00192A34688464E46B9460700EBE7C8
:10346000013C551C5346185D43463900B0472A00BD
:10347000002CF5D135003E0047460F9B9B0711D429
:10348000100003B0F0BCBB46B246A946A046F0BD52
:10349000541C4B4641462020B8472200531BB342E0
:1034A000F6D3EDE7B0464E46B9462F005D46F5E748
:1034B000F0B5CE46474680B585B0944698460C9DFB
:1034C0000D9C0EAB1B789946109A119B129EB70764
:1034D0001CD4002B0CD0F7070AD54F46002F02D181
:1034E0000C37374204D0013B02E030272F5501341E
:1034F000944201D21F2CF8D9F70707D59C4205D278
:103500001F2C03D830272F550134F5E7F70612D5C5
:10351000770505D4002C03D0944221D09C421FD0C3
:103520000F9A102A2FD00F9A022A36D01F2C0AD8B1
:1035300030222A5501341F2C05D84A46002A32D0A1
:103540002D222A5501340396029301940095434697
:103550006246FFF755FF05B0C0BCB946B046F0BDA6
:10356000621E012C17D00F9F102F0BD014000F9A42
:10357000102AD8D1B206D6D51F2CD4D858222A5515
:103580000134D3E7023CB206F1D41F2CEFD87822E5
:103590002A550134CAE71400C2E71F2CD3D8603281
:1035A0002A550134C2E7720703D52B222A5501346C
:1035B000C9E73207C7D520222A550134C3E7F0B541
:1035C000DE4657464E464546E0B593B081468A46AC
:1035D000089209931CAB10CB1B789B461E9D219B28
:1035E0009846002C03D1102342469A4390468023EC
:1035F000DB0046461E4042461A4218D0002C22D01C
:10360000002614E0424692061BD54121C918C9B2D2
:103610000A39C9B2771C0AAB995529002000FFF777
:10362000FBF9AC4210D31F2F0ED83E000400290036
:103630002000FFF7F1F9CBB2092BE3D83033D9B230
:10364000E8E76121E2E7270043460693209B0593C4
:103650001F9B049303955B46029301970AAB00936B
:10366000099B089A51464846FFF722FF13B0F0BC69
:10367000BB46B246A946A046F0BDF0B5DE46574669
:103680004E464546E0B597B00A900B910C929A468B
:10369000209B9946219F22AA13789B46249B09933D
:1036A000259C289B98464A463A4302D110329343C0
:1036B00098468022D20045461540434613420AD020
:1036C0004A463A4341D000252E0053460D934D46BD
:1036D000099B9A4621E02E0053460D934D46099BC7
:1036E0009A461AE04246920623D54122D218D2B217
:1036F0000A3AD2B2731C99460EAB9A555246230031
:1037000028003900FFF7C6F9BC4220D813D04B4639
:103710001F2B16D84E4605000F00524623002800E6
:103720003900FFF7B7F9D3B2092BDBD83033DAB25F
:10373000E0E76122DAE7AA45E9D94E460D9B9A46B1
:1037400008E04E460D9B9A4604E0002602E04E46F5
:103750000D9B9A4643460693279B0593269B04930D
:10376000099B03935B46029301960EAB009353466D
:103770000C9A0B990A98FFF79BFE17B0F0BCBB465A
:10378000B246A946A046F0BDF0B5DE4657464E46C5
:103790004546E0B591B0804689460C929A461A9CFF
:1037A0001B9D22002B0020002900FFF7EEFB0028C4
:1037B00000D0F2E001225242D54B20002900FFF751
:1037C000DFFB002800D0E8E001225242D14B20006C
:1037D0002900FFF7BFFB002800D0DEE00022002315
:1037E00020002900FFF7B6FB002800D0EAE006948D
:1037F00007958023DB001E9A1A400D921E9A1A42EA
:1038000001D106231C930698079902000B00089229
:10381000099303000A00024300D1DFE0080D4005D0
:10382000400DBD4EB4466044079E3203120B1E008D
:10383000BA4B13431F00FFF7B9FBB94AB94BFFF767
:103840004AFBB94AB94BFFF727FB089009910022C0
:10385000B74B30003900FFF71AFBB64AB64BFFF7FB
:103860003AFB02000B0008980999FFF715FBFFF7D8
:10387000B5FB8346FFF79AFB06000F00AF4AB04B3B
:10388000FFF729FB0022AF4BFFF706FBFFF7A6FB74
:103890000890AD4AAD4B30003900FFF71CFB060025
:1038A0000F000898FFF782FBA94AAA4BFFF713FB0A
:1038B00002000B0030003900FFF7E9FA06000F00A4
:1038C00002000B00FFF707FB0A900B91089BA24A2E
:1038D0009446634400210022089109921B05099334
:1038E0000023089332003B0030003900FFF7D4FA80
:1038F0000E900F9132003B0000208021C905FFF798
:10390000C6FA06000F000022944B0A980B99FFF7A5
:10391000C8FA0022924BFFF7BFFA02000B000A9888
:103920000B99FFF7BEFA00228E4BFFF7B5FA0200A3
:103930000B000A980B99FFF7B4FA02000B00300055
:103940003900FFF7A9FA02000B000E980F99FFF754
:10395000A8FA0022714BFFF79FFA089A099BFFF71C
:10396000BAFA06000F0008960997069A079BFFF718
:1039700007FB00280BD001235B429C46E344002256
:10398000774B30003900FFF78CFA089009915B46BD
:103990006333C62B45D8042623E01E9B04931D9B4E
:1039A00003931C9B02930094019553460C9A49463D
:1039B000404600F0FBF811B0F0BCBB46B246A94649
:1039C000A046F0BD002100220691079206948023B4
:1039D0001B069C46AC44634607930AE700239B46BC
:1039E00004261E9B1B0528D5089A099B1900114324
:1039F0000FD05D4A5D4B06980799FFF7B9FA00288A
:103A00007AD000225A4B06980799FFF7A3FA0028AC
:103A100072D01C9B5B4506DD5A469B1A013B1C93EA
:103A200003E00526DDE700231C938023DB001E9ABC
:103A30001A431E92002600239B461D9B9E4265D280
:103A40009F1B02231E9A1A400A921E9A134202D00A
:103A5000002E00D000275B46002B07D0089A099B58
:103A600006980799FFF71DFA069007910022002398
:103A700020002900FFF76EFA002800D07CE03D4BC3
:103A80001E9A1340049303971C9B0293069B079C6A
:103A90000093019453460C9A4946404600F086F83C
:103AA000002E00D187E71E9B9B0671D54525441C3F
:103AB0005346020049462800C0475A46D317D21839
:103AC0005A4005230593013E0496002303930A33CD
:103AD00002935B46DB0F0193009253462200494656
:103AE0004046FFF76CFD0A9B002B00D163E7020004
:103AF00047460C9E1D9D53E01C9B002B9DD00D9BAB
:103B0000002B9AD01C9B013B1C9396E7002798E75B
:103B1000FFFFEF7FFFFFEFFF01FCFFFF0000F03F23
:103B2000FB799F501344D33FB3C8608B288AC63FAC
:103B30000000F83F61436F63A787D23F71A3790903
:103B40004F930A400000E03F1655B5BBB16B0240F1
:103B5000EF39FAFE422EE63FFF03000000002C4042
:103B600000002440000018402D431CEBE2361A3FB1
:103B700080842E41FFF7FFFF069C079D220029004D
:103B800080200006844661440B000692079376E786
:103B900065258CE7541C534649462020B84722002F
:103BA000931BAB42F6D3100005E7C046F0B5DE46E6
:103BB00057464E464546E0B595B006900791934668
:103BC0009946209F1E9A1F9B10001900FFF7DDF9F0
:103BD000002831D101225242BC4B1E981F99FFF799
:103BE000B9F9002837D101225242B94B1E981F99CA
:103BF000FFF7C6F900283DD10022B64B1E981F9949
:103C0000FFF7BEF900284AD10022B34B1E981F9936
:103C1000FFF7A0F9002842D1002200231E981F9927
:103C2000FFF798F900284AD100239846229B5B05AC
:103C300000D4B0E0002452E0229B0393219B029326
:103C400003230193A54B00934B465A4607990698C8
:103C5000FFF7D6FB08E1229B0393219B02930423E9
:103C600001939F4B00934B465A4607990698FFF7DE
:103C7000C7FBF9E0229B5B070ED59A4B04222299E1
:103C8000039121990291019200934B465A4607995C
:103C90000698FFF7B5FBE7E0934B0322EFE7229B83
:103CA0000493219B039302971E9B1F9C00930194F6
:103CB0004B465A4607990698FFF766FDD4E01E9AD0
:103CC0001F9B00200021FFF7E2F81E901F910123A7
:103CD0009846ABE70CAB30221A55013F01341F2C3C
:103CE00001D8092FF6D81E981F99FFF777F905001C
:103CF000FFF75CF902000B001E981F99FFF7C7F849
:103D00007A4BFA009B181A685B680A920B93FFF7CC
:103D1000E2F808900991FFF785F90600FFF742F9EC
:103D200002000B0008980999FFF7B1F80890099173
:103D300000226F4BFFF724F900282ED00136300007
:103D4000FFF730F902000B000A980B99FFF708F90A
:103D5000002801D001350026002F2CD12800FFF7C4
:103D600025F902000B001E981F99FFF790F8060036
:103D70000F0000225E4BFFF7EDF8002846D100222D
:103D80005B4B30003900FFF7FBF800283ED1EB0712
:103D90003CD501353AE006274CE70022544B089801
:103DA0000999FFF7D7F80028D6D1002E01D0F307E4
:103DB000D2D50136D0E7AA461F2C11D8013F0A21DF
:103DC0003000FEF729FE651C30310CAB19550A2175
:103DD0003000FEF721FE092E0ED906002C00EBE77D
:103DE00055461F2C0CD87B1E002F09D00CAA302161
:103DF00011551F000134F4E72B0055461C00F0E775
:103E00001F2C03D80CAB2E221A5501341F2C10D8AE
:103E10000A212800FEF7D8FD661C30310CAB19557D
:103E20000A212800FEF7D0FD051E01D03400EDE781
:103E300034000323229A1340012B1CD01F2C06D8D8
:103E40004346002B32D00CAB2D221A550134229B55
:103E50000393219B029301940CAB00934B465A466B
:103E600007990698FFF7CCFA15B0F0BCBB46B246EE
:103E7000A946A046F0BD219B002B13D04346002B42
:103E800002D10C3313420FD0219B013B2193190027
:103E900003E00CAB30221A5501348C42CED21F2CD9
:103EA000F7D9CBE72199F8E72199F6E7229B5B0741
:103EB00004D50CAB2B221A550134C8E7229B1B07F3
:103EC000C5D50CAB20221A550134C0E7FFFFEFFF28
:103ED000FFFFEF7F65CDCD4165CDCDC158B101105C
:103EE0005CB101104CB1011054B10110E007021097
:103EF0000000E03FF0B5DE4657464E464546E0B589
:103F000093B007008A4693461193002900D12CE311
:103F1000002508E06C1C5B462A005146B847119BFF
:103F2000013311932500119B1878002800D11EE35E
:103F30002528EFD1013311930023180020E001233D
:103F4000184301321192012418E002231843013270
:103F50001192012412E0042318430132119201242A
:103F60000CE00823184301321192012406E01023CB
:103F7000184301321192012400E00024002C09D0E2
:103F8000119A1378203BD9B21029F6D88B00C44976
:103F9000CB589F468146119B1A781300303BDBB209
:103FA000092B10D92A2A13D00B94119B1A782E2A88
:103FB00020D0119A1378683BD9B2122965D88B00AA
:103FC000B849CB589F4611A8FFF708FA0B90ECE7C9
:103FD0001C9B1A1D1C921B68002B04DB0B93119B6E
:103FE00001331193E1E702220100114389465B424C
:103FF0000B93F4E78022D2004946114389465A1CAC
:1040000011925A781300303BDBB2092B0BD92A2AC4
:10401000CFD11C9B1A1D1C921C68002C08DB119B25
:1040200001331193C5E711A8FFF7D8F90400C0E7E1
:104030000024F4E780235B0049460B43511C119197
:1040400051786C2901D099461FE0C0239B00494656
:10405000194389460232119217E0802349460B43E7
:10406000511C11915178682901D099460DE0C02367
:104070004946194389460232119206E080235B00CB
:1040800049461943894601321192119B18786728D5
:104090001CD8252800D25EE20300253BDAB2422A72
:1040A00000D958E29300804AD3589F4680239B0052
:1040B00049461943894601321192E6E780235B00A5
:1040C00049461943894601321192DEE7782800D922
:1040D00041E2692800D23EE20200693AD2B20123ED
:1040E0009340724A134210D11A0600D50CE25B05C8
:1040F00000D430E21C9B1A1D1C921E68002C00D0BC
:10410000BAE101225242330096E16F2842D005D82D
:10411000582841D0622803D1022606E078283DD0F5
:1041200010234A469A4391460A26582838D06928CF
:1041300005D0642803D00C224B46934399464B4646
:104140005A0502D501229343994669282DD0642847
:104150002BD04B469A0500D5AAE0DA0500D5C2E07F
:104160005A0600D4D3E01C9A111D1C911168FF223D
:104170000A404B4605930B9B04930394029600233D
:10418000019300925B462A0051463800FFF717FA68
:1041900005002AE00826C8E71026C6E71026C4E76F
:1041A00020224B4613439946C1E74B469A0520D43B
:1041B000DA0551D45A0666D51C9A111D1C91116856
:1041C000FF220A40D017111841404B4605930B9B24
:1041D000049303940296D20F019200915B462A0049
:1041E00051463800FFF7EBF90500119B013311939D
:1041F00099E61C9A073207218A43110008311C9165
:10420000116853689C46DB170C930D930C9A0D9B19
:10421000100048400E900D9B61464B400F930E9846
:104220000F990C9A0D9B801A99410E900F914B4655
:1042300008930B9B0793069404960023059363460B
:10424000DA0F0292009001915B462A005146380035
:10425000FFF713FA0500C8E71C9A111D1C9112689C
:10426000D0171118414005930B9B049303940296B9
:10427000D20F019200915B462A0051463800FFF7A9
:104280009EF90500B1E71A0605D51C9A111D1C916F
:104290000023D25E96E71C9A111D1C91126891E7CB
:1042A0004006021084060210D00602104190000061
:1042B0001C9A073207218A43110008311C91089388
:1042C0000B9B07930694049600230593029353686F
:1042D0001268009201935B462A0051463800FFF7AE
:1042E000CCF9050081E71C9A111D1C9105930B9BCD
:1042F00004930394029600230193136800935B4692
:104300002A0051463800FFF75AF905006DE71A06F2
:1043100006D51C9A111D1C9112681204120C28E774
:104320001C9A111D1C91126823E746281AD01C9B69
:104330000733072293431A0008321C924A4604921C
:104340000B9A039202941A685B68009201935B4691
:104350002A0051463800FFF729FC0500119B013364
:104360001193E0E520234A461A439146DFE7672888
:1043700001D0472804D180231B014A461A439146A5
:10438000452801D0472803D120234A461A439146A5
:104390001C9B0733072293431A0008321C924A469B
:1043A00004920B9A039202941A685B68009201933C
:1043B0005B462A0051463800FFF7E6F90500119BDD
:1043C00001331193AFE502234E461E404A46134285
:1043D0001ED001241C9B1A1D1C926A1C9046187842
:1043E0005B462A005146B847002E14D1119B013379
:1043F0001193454697E5551C5B4651462020B8472A
:1044000023002A005C1C0B999942F4D81500E1E7BF
:1044100001232A00F6E7424606E0561C5B46514659
:104420002020B8472C003200651C0B9BA342F4D817
:104430009046DBE701330A001978002902D0511EAB
:10444000002AF7D19B1B8022D200494611408846A2
:104450004946114202D0A34200D923000222494614
:104460001140109149460A4208D02A002500994679
:104470003B004746984626E0220044E6A1462A0033
:104480005146B2460E0006E0551C5B463100202026
:10449000B84723002A005C1C0B999942F4D81500F8
:1044A00022004C46330056469A4691462A00250083
:1044B0003B004746984606E01D000136541C5B460B
:1044C0005146C04722003078002804D0002FF4D095
:1044D0006B1E002DF0D115004B464746109A002A5E
:1044E00003D1119B013311931DE50B9E2A0006E0B9
:1044F000551C5B4651462020B84723002A005C1C0F
:104500009E42F5D81500ECE721234A461A431300D2
:104510001C9A111D1C91126805930823049303949F
:10452000083302930023019300925B462A00514610
:104530003800FFF744F80500119B01331193F2E4B2
:104540006C1C5B462A0051462520B847119B01335D
:1045500011932500E7E46C1C5B462A005146B847DE
:10456000119B013311932500DDE40A4FD0E45D4532
:104570000DD35B465A1E5B4651460020B8472800C3
:1045800013B0F0BCBB46B246A946A046F0BD2A0017
:10459000F1E7C046CD3300100CB430B585B00A0049
:1045A00008AC08CC0394054D009401002800FFF7E7
:1045B000A1FC05B030BC08BC02B01847C5330010E0
:1045C00010B584B00C0002A902904C60012404488C
:1045D000009313006242FFF78DFC04B010BDC0468B
:1045E000CF33001000BEFDE703000A4A1268002A1C
:1045F00008D0084A1068C318074A9A4206D3054AE9
:1046000013607047034A05491160F2E701204042F8
:10461000F7E7C046AC2E00200000042090E3022003
:1046200010B5FFF7DFFF000030B583B00D001900B3
:10463000002A0BD0074B084C019200932B0002007C
:10464000200000F061F90120FFF7CCFF034B1A00B6
:10465000F1E7C04664B1011074B1011080A40110EB
:1046600010B5EFF30583002B00D000BEFEF7C4F8B1
:10467000034C01E008CC9847024B9C42FAD310BD92
:1046800094A30110A0A3011010B5030008001100AD
:104690001B68984710BD0000F8B507000D00160014
:1046A000437D002B02D0002400200CE003681100A1
:1046B000280098472DE03B7D10E03B68154802211B
:1046C0009847601C0134B44214DA002CF3DD2B1936
:1046D000013B1B780D3B5A425341DBB22A5D0A2A4B
:1046E000F0D1002BEED1A042E7DA3B68211A28185E
:1046F0009847E2E7B04203DA3B68311A2818984736
:10470000002E06DDAD19013D2B780D3B5A42534179
:104710003B75F8BD3008021070B505000368002B2A
:1047200016D00C4B1C6805E0290004C92000FFF7D7
:10473000B3FF2469002C09D02368002BF9D0064B65
:104740001B68002BF0D0A342F3D1EDE700232B60D0
:1047500070BDC0469C2E0020A82E002070B505001C
:104760000C000B68802B05D023685A1C2260E418CB
:10477000257170BD0800FFF7CFFFF5E710B5FDF715
:104780003BFE074A002312184B41002B03DB054870
:1047900015F0A2FD10BD01225242034BF7E7C046BF
:1047A00040420F0098140020FFFFFF7F10B5024821
:1047B00015F04AFD10BDC04698140020F0B5CE4655
:1047C000474680B583B006000D0090461C00FFF7F9
:1047D000D5FF81466B1C05D0002C08D0184F194B13
:1047E0001C6807E0300015F093FB0500F4E7164F56
:1047F000F5E72469002C17D02368002BF9D0134B60
:104800001B68002B01D0A342F3D12A003100200005
:10481000B8474346002BECD06B46D91D0A230B70DA
:1048200001222000B847E4E74B46002B05D12800C1
:1048300003B0C0BCB946B046F0BDFFF7B7FFF6E71E
:10484000994600109C2E002089460010A82E0020BA
:104850000A4A136802E01A0010321B69002B09D0C3
:1048600013688342F7D1002907D10369136000233D
:10487000036102E0002900D0106070479C2E0020E8
:1048800010B5064B1C6800E02469002C04D0636856
:10489000002BF9D09847F7E710BDC0469C2E0020AA
:1048A00010B500F0C7F910BD70B5050015F030FB6C
:1048B00004000123012201002800FFF77FFFFFF71A
:1048C000DFFF200070BD0000F0B5A3B004000E00B3
:1048D000FFF754FF050001AF00230193094833009F
:1048E00022003900FFF76CFE04003800FFF714FFC8
:1048F000FFF7C6FF002D02D1200023B0F0BDFFF767
:1049000055FFF9E75D4700100FB400B583B004A967
:1049100001C90191FFF7D8FF03B008BC04B01847E4
:1049200070470000014B00221A70704781E302209B
:104930004B79FF2B0CD18B79002B0BD1CB79012B31
:104940000AD1082A0AD98A78054B1A70092000E092
:10495000002070470020FCE70020FAE70020F8E77D
:1049600081E302200120704710B5012927D1117978
:1049700053791B020B43134909788B4201D0002065
:104980001EE05378012B03D0022B11D0002017E03A
:104990009178D3781B021943DB0506D5480A8A05AE
:1049A000D20F7F231940FDF7F1FE01204042F6E7C8
:1049B000642200210020FDF791FE012000E001208B
:1049C00010BDC04681E3022000487047FC08021079
:1049D00010B51400012910D15378012B0FD1127991
:1049E00063791B021343072B01D0002006E0054A20
:1049F0009F33210001F060FB00E0012010BD00208A
:104A0000FCE7C046540802100123037000487047B9
:104A10003408021010B50A784B781B0213438A78C9
:104A200012041A43CB781B0613439622D2009342FA
:104A300000D010BD0120002211004042FDF7A6FE6B
:104A4000024B1860024B19607047C046B01F00202F
:104A5000B41F002010B5FDF7CFFC0E4A002312183A
:104A60004B41002B12DB0C4815F036FC00280CD013
:104A700001200021404201F0EBF9002001F084FC0C
:104A80000028F5D1044815F0DFFB10BD0122524289
:104A9000024BE8E740420F00C4E10020FFFFFF7F28
:104AA00010B5024B1878FCF7C1FC10BD82E3022060
:104AB0000268EFF3108172B61368002BFCD0BFF3CD
:104AC0005F8F41607047000070B5144B1B68002B6E
:104AD0001AD0124C2000FFF7EBFF114B00221A7086
:104AE00021686368BFF35F8F0A6083F31088002436
:104AF00000250C4B1878FCF775FC002808D1002421
:104B000000252000290070BDFA24A4000025F0E74C
:104B1000044B1878FCF78AFCF3E7C04624CD00204C
:104B200085E3022082E30220F0B585B00600140080
:104B30001D000CAB1F78FDF75FFC22002B00121844
:104B40004B41002B09DB02970B9901910A990091C7
:104B50003000FDF779FA05B0F0BD01225242014B59
:104B6000F1E7C046FFFFFF7FF0B5C64600B584B051
:104B70000500884616001F000AAB1C78FDF7AAF94D
:104B80000294019700962A004346FFF7CDFF04B038
:104B900080BCB846F0BD000010B582B01F480021AF
:104BA00015F08AFB002818D11D4B1B68002B12D072
:104BB0001B4C2000FFF77CFF1A4A1378DBB201215F
:104BC000117021686268BFF35F8F0020086082F374
:104BD0001088002B17D002B010BD012000214042E8
:104BE00001F036F9002001F0A7FB04000B4815F096
:104BF0002BFB002CEFD00C4B1B68002BEBD00B4A8F
:104C000010689847E7E70A4A013300930023FA2027
:104C100080000021FFF7A8FFDDE7C046C4E10020C7
:104C200024CD002085E30220B01F0020B41F002007
:104C3000C94A001010B582B0D0231B061C68FDF7CE
:104C400049F9FDF77BFAA04230D1274B1B780021B0
:104C5000002002F05BF8254B1B68002B2CD00120B4
:104C6000FCF7A6FE224C20702249FF231840FCF7D7
:104C70000BFC20780121FCF7CFFB0520FCF7F6FBAD
:104C8000041E1DD00120FCF705FB01001A4B180083
:104C9000FCF700FF194900220520FCF71FFC18480B
:104CA0000121FFF7D5FD200002B010BD154B164ABB
:104CB0001648C121FFF7B8FC0C48FCF7A7FECEE769
:104CC0000D4808220021FEF771FB114A01230093D1
:104CD0000023FA2080000021FFF746FFC043C40FE5
:104CE0000028E0DADBE7C046F08D0510C4E10020C3
:104CF00082E30220994B001024CD0020A14A00102D
:104D0000900E00203CAC01102C090210A4B101103F
:104D1000C94A001010B5002001F0F2FA10BD0000E1
:104D200070B505000C00FFF7F5FF002834D0002017
:104D300001F002FB002832D0FDF75EFB1B4A002386
:104D400012184B41002B19DB194815F0C5FA002841
:104D500028D0FFF7DFFF002804D0002001F0ECFA94
:104D600000280FD101200021404201F071F80324F6
:104D700064420F4815F068FA200070BD01225242CB
:104D80000C4BE1E722002900002001F0E1FA041EAB
:104D9000EFD103246442ECE703246442ECE70324EC
:104DA0006442E9E703246442E6E7C04640420F005C
:104DB000C4E10020FFFFFF7FF0B5C64600B5804686
:104DC0000C00FDF719FB314A002312184B41002B50
:104DD00007DB2F4815F080FA002806D180BCB846C2
:104DE000F0BD012252422B4BF3E7FFF793FF00285F
:104DF00049D1294B0020002118605960244815F042
:104E000023FAEBE701200021404201F021F80020C5
:104E100001F0BAFAFFF77EFF0028EFD0002001F082
:104E20002FFB002820D0A542E8DA661B002001F005
:104E300027FB0200864200DC3200002AE2D0434613
:104E40005919002001F0F8FA060001200021404223
:104E500000F0FEFF002001F097FAAD19FDF7CCFA43
:104E60000D4B18605960DEE7FDF7C6FA0A4B1E6865
:104E70005F680A4A002392197B419942BED8D2D179
:104E80009042D0D9BAE70025CDE7C04640420F0096
:104E9000C4E10020FFFFFF7F7016002020A1070063
:104EA00000487047A80902100048704754090210D2
:104EB00010B50400154B1B78002B0ED0002C11D11F
:104EC000134B144A5A80012301335B009BB21048F4
:104ED000C02292001343038010BD0C48112100F042
:104EE0002DF8EBE7052C0ED80B4BA400E45800235B
:104EF000122BE9D8E15C0029E6D00133044A5800BE
:104F00008152DBB2F4E70020E6E7C0460CE2022063
:104F1000A0290020090400003C09021010B5024835
:104F200000F038F810BDC046B0DF002010B50249CF
:104F30000822FEF741FA10BDB0DF002010B50029AD
:104F400001D0002308E00F4B0F4A10483531FFF71E
:104F50006BFB3732C25401334A1E9A420ED90F2BD3
:104F60000CD85A080A4CA45C01229A4392001441BE
:104F70000F222240092AECDC3032EBE7C018002374
:104F8000037010BD30B20110BC09021038B201101C
:104F9000B0DF002070B588B0040004AD0D22002100
:104FA0002800FEF703FA0D2200216846FEF7FEF9FD
:104FB0004B232B700D226946280015F035F900238C
:104FC00004E05A1D69468A5CE2540133072BF8DD80
:104FD00008B070BD70B582B07F230340C509274C6F
:104FE0005E0076197601A419A0706842684160706D
:104FF0000020E0702183E276012D1ED0D800204AE7
:10500000944660441D4A590049194901521890605C
:105010001A4A590049194901521892680021116031
:10502000002B10D1154A5B005B195B01D3180022DD
:105030005A60144ADA6002B070BDD800124A944631
:105040006044A060E4E7012D0BD0591EC9000F4A4F
:1050500094466144094A5B005B195B01D2185160B8
:10506000E9E7591EC9000A4A94466144034A5B00B5
:105070005B195B01D2185160DDE7C046B02E0020FD
:105080008400105000011050800010500C0010508F
:105090000800105010B5038B3F333F229343C27E6C
:1050A000022A08D008490A68C260D3180B60074A70
:1050B000934202D810BD5B00F4E7054B054A064851
:1050C0005221FFF7B1FAC04604CD0020FF0F105067
:1050D0001CB401101C0A021060B40110F8B57F2541
:1050E0000540C6096B009B195B010E4C1C19FFF7AC
:1050F00071FF002D00D1F8BD0A4B6D00AD196D0197
:105100005D19298B2000FFF7C5FFEB7E9B06E96840
:10511000054A4A4013438022120613436A6813600B
:10512000E9E7C046B02E00200000105010B5040082
:105130007F202040E409400000194001024BC018C4
:1051400000F026F910BDC046B02E002010B5002892
:1051500004D101210520FCF75FF910BD034B044A7F
:1051600098210448FF31FFF75FFAC046D0B4011020
:105170000C0A021060B4011010B5002805D10022FD
:1051800000218020FFF7D2FF10BD034B034AA2216C
:105190000348FF31FFF748FAD0B40110FC090210B0
:1051A00060B40110024B80225202DA647047C0469C
:1051B0000020115070B5041E27D100F0C7F8164D1D
:1051C0000C23AB671549FF220520FCF787F914482B
:1051D00040220021FEF7EAF8002240210020FFF7DC
:1051E0007DFF002240218020FFF778FF15F09CF81A
:1051F00001232B6480239B05EB649023094AEA502A
:105200002000FFF7CFFF012070BD074B074A642144
:105210000748FF31FFF708FA00001150AD060020E3
:10522000B02E002010D00100D0B40110300A0210BE
:1052300060B40110044B1970002904D0034A902374
:1052400080218902D150704777E30220002011505D
:105250000B785B0602D14B78052B00D070478A781B
:10526000014B1A60FAE7C0460000115010B5CA7829
:105270009207920F012A0AD088780B79497909029E
:1052800019434905490DFFF729FF012010BD0020F2
:10529000FCE710B515F048F810BD000010B504008B
:1052A000080011001A00002C03D1FFF73FFF012076
:1052B00010BD034B034A812103488900FFF7B4F96D
:1052C000D0B40110EC09021060B4011010B57F23B6
:1052D000180008400B4205D1CB09012B0ED0022249
:1052E000074B9A66C909400040184001054BC01899
:1052F00080221201002115F00FF810BD0122EFE706
:1053000000201150B02E002010B57F221000084060
:105310000A4200D110BDC909400040184001044BA9
:10532000C0180023C3700022024914F0F5FFF1E712
:10533000B02E0020FFF7FFFF04E00A780270013171
:1053400001301A00531E002AF7D1704710B5802390
:105350005B040A4A13600A4A13600A4B1A688023E6
:105360005B049343F9D18022520100210648FEF7E5
:105370001DF8064B09225A6710BDC04600E00040E8
:1053800000F0004008C00040000010500000115024
:1053900070B504000D001600837E002B17D1A68285
:1053A0000023E3820133A3762561200014F05CFF23
:1053B000002804D00C4A902380218902D15020007B
:1053C00014F03AFF00280AD00123237770BD8178BA
:1053D0000648FFF799FA200014F096FFDFE7200057
:1053E00014F082FFF2E7C04600201150C0B5011052
:1053F00070B50500002408E09B1A5B01164A9B1853
:10540000DB68280098470134E4B2144B1A78230073
:10541000511CA1420DDBA242EED9114B1B68620167
:105420009B18002BECD10F490F48104AFFF76CFA7C
:1054300010E00F4C542200212000FDF7B7FF201D83
:105440001022FF21FDF7B2FF200014302022FF219F
:10545000FDF7ACFF70BDC046AC0B021076E3022036
:10546000F0170020780B0210F8B50110250200009B
:10547000A01900200268EFF3108172B61368002BA8
:10548000FCD0BFF35F8F4160704710B5FFF7B0FFEE
:1054900000F05EFE10BD70B505000C0016004869F6
:1054A00000F060FE6369320001212800984770BD5A
:1054B000F0B5DE4657464E464546E0B583B08246D7
:1054C0000139C8B2FFF7F0FC002803D043789946B1
:1054D000022B0CD056495748574AFFF715FA0020BF
:1054E00003B0F0BCBB46B246A946A046F0BDC579A4
:1054F0006C110122514B1440240119781026B1433C
:1055000021431970AD112A405201C9B22024A14390
:105510000A431A70060009368278C3781B021343C7
:1055200083469B444B460193370066E0FB789946DF
:105530003A78BF1868E03E493E48414AFFF7E4F92F
:105540000020CDE7009AD31A5B013E4E9E193369C5
:105550002200390050469847082801D9844216D2C3
:105560000135EDB2384B1B7800955A1CAA423EDB40
:10557000AB42E7D9354B1B686E019E19002EE6D170
:105580002B492C48324AFFF7BFF90020A8E7340026
:10559000009E00904B46012B11D0002049468142CD
:1055A0001BD9BB781B18DBB2244AD2181279FF2A08
:1055B0000CD1224AD3181D710130C0B2EFE7216926
:1055C000244A9142E9D1019B9946E6E718491948D6
:1055D000214AFFF799F9002082E720482B00009C20
:1055E0002200390001F068FCA446674400E02E0068
:1055F000154B1B7801339E420FDC5F4515D27B783B
:105600000B2B93D0012399467A78042A93D15B46D9
:10561000DA1B93B200251C00A4E785220449054843
:10562000D200FFF771F900205AE7012058E7C04681
:105630004C0B0210F8B50110D6030000A019002091
:10564000F1030000AC0B021076E30220F0170020FB
:10565000FA030000FD65001019040000B4190020D1
:1056600070477047002070470020704770B50500F4
:105670000C00CB7888780F2B53D89A002E498A5883
:105680009746FFF70DFC021E05D0122321002800CB
:1056900000F012FD46E0294929482A4AFFF734F96B
:1056A00000203FE0FFF790F9021E3CD08178C378DC
:1056B0001B020B432100280000F0FEFC32E0022B0D
:1056C0000CD0FFF7D1FF021E2FD09178D3781B02A8
:1056D0000B432100280000F0EFFC23E0FFF7E4FB80
:1056E000021EF2D115491648174AFFF70DF900209E
:1056F00018E02379617909021943FFF7D9FB021EEB
:1057000015D003782100280000F0D6FC0AE0FFF74E
:10571000A9FF021E0DD003782100280000F0CCFC68
:1057200000E0002070BD0020FCE70020FAE7002028
:10573000F8E70020F6E7C0464C0A0210340B0210CE
:10574000F8B501103A04000061040000704770478A
:1057500070477047024B5878431E9841C0B270475B
:10576000A0190020024B18784007C00F7047C046B0
:10577000A0190020034B1878FF38431E9841C0B28F
:105780007047C046C40E0020F8B505000F00FFF7B3
:10579000F1FF061E48D1002F21D02E4854220021AF
:1057A000FDF704FE2C4B00221A702C4C2000FCF755
:1057B0002DF92B4B1C602B4C2000FCF775F9143C89
:1057C000200001F013FF284B1C60284B002B04D055
:1057D0002748FFF719F9274B1860002410E0E92249
:1057E000254926485200FFF78FF81DE09B1A5B0100
:1057F000234A9B185B68002B10D098470134E4B211
:105800001B4B1A782300511CA1420FDBA242EDD999
:10581000184B1B6862019B18002BEBD1F82216492C
:1058200016485200FFF770F83000F8BD154B1D7098
:1058300039002800FFF7BEFC061E03D02800FFF742
:1058400085FCF1E7FC220C490C485200FFF75CF89C
:10585000EAE7C046A019002078E30220981900204A
:10586000F4190020BC0E0020F8190020094A00108D
:1058700076E30220F01700209C0B0210F8B501100F
:10588000AC0B0210C40E002070B50D00104B1E783A
:105890008B7870221A420DD10E4B9978280001F0B6
:1058A000B5FA041E0DD029003000FFF7DFFC04001C
:1058B000200070BD08490948094AFFF725F800246F
:1058C000F6E705490548074AFFF71EF8F0E7C04626
:1058D000C40E0020A0190020040B0210F8B501101E
:1058E0000B0500000C050000F0B5D6464F464646B5
:1058F000C0B581460C0017009846089B9A460025C3
:1059000017E018491848194AFEF7FEFF0026300034
:10591000E0BCBA46B146A846F0BD9D2211491248E6
:10592000D200FEF7F1FFF2E7099A13702378E4182A
:105930000135AF4214DD6378052BE2D1E1788907A8
:10594000890F4145DDD121004846FFF79DFF061E26
:10595000E3D0A378DA09012AE6D052461370E5E7CE
:105960000126D4E7140B0210F8B50110E70400007B
:1059700010B57F200840C909400040183030044B62
:10598000C0180430034B196801F0FCF910BDC04683
:10599000A0190020F419002010B57F200840C90983
:1059A000400040183030044BC0180430034B1968D5
:1059B00001F010FA10BDC046A0190020F419002013
:1059C000F0B5C64600B582B001931A4800787F252D
:1059D0000D40CE09184C6F00E419A4193034247915
:1059E000E4071DD4144C6F00E419A4193034237952
:1059F0000127BC4667463B432371019BFFF74EFCE2
:105A0000002813D10C4B6D005B199B1930331A79A8
:105A100001218A431A711A7903318A431A7105E008
:105A200006490748074AFEF76FFF002002B080BC16
:105A3000B846F0BDC40E0020A0190020F40A0210E0
:105A4000F8B501103905000070B50A4B18787F24AD
:105A50000C40CD09FFF73AFC074A640013195B19A3
:105A600030331A7902210A431A711A7901210A4343
:105A70001A7170BDC40E0020A019002070B50A4B29
:105A800018787F240C40CD09FFF73EFC074A6400DC
:105A900013195B1930331A7902218A431A711A7962
:105AA00001398A431A7170BDC40E0020A01900206C
:105AB0007F220A40C909044B52009B185B183033FF
:105AC00018798007C00F7047A0190020F0B585B085
:105AD00005000C00002000F045FB237860221A40EE
