:020000041000EA
:1000000000B5324B212058609868022188439860DF
:10001000D860186158612E4B002199600221596106
:100020000121F02299502B49196001219960352056
:1000300000F044F80222904214D00621196600F024
:1000400034F8196E01211966002018661A6600F04E
:100050002CF8196E196E196E052000F02FF8012189
:100060000842F9D1002199601B49196000215960AB
:100070001A491B48016001219960EB211966A021F2
:10008000196600F012F800219960164914480160C1
:100090000121996001BC002800D000471248134993
:1000A000086003C880F30888084703B5996A0420EC
:1000B0000142FBD001200142F8D103BD02B5186610
:1000C0001866FFF7F2FF186E186E02BD00000240BE
:1000D000000000180000070000035F00212200005C
:1000E000F4000018222000A00001001008ED00E03C
:1000F00000000000000000000000000074B24E7A12
:1001000000200420F7010010C3010010C5010010F9
:10011000C1010010C1010010C1010010C101001097
:10012000C1010010C1010010C1010010C701001081
:10013000C1010010C1010010C9010010CB01001065
:10014000CD010010CD010010CD010010CD01001037
:10015000CD010010CD010010CD010010CD01001027
:10016000CD010010CD010010CD010010CD01001017
:10017000CD010010CD010010CD010010CD01001007
:10018000CD010010CD010010CD010010CD010010F7
:10019000CD010010CD010010CD010010CD010010E7
:1001A000CD010010CD010010CD010010CD010010D7
:1001B000CD010010CD010010CD010010CD010010C7
:1001C00000BE00BE00BE00BE00BE00BEEFF3058054
:1001D000103800BEF2EB887144690510646905109F
:1001E0003802001090A31AE71E481F49086006C88D
:1001F00081F3088810471D480068002801D019487D
:10020000F3E70DA40ECC002902D000F012F8F9E7B4
:100210001749184A002000E001C19142FCD116495B
:100220008847164988471649884700BEFDE701C937
:1002300001C29A42FBD3704764690510E0000020B8
:1002400040180020C4800510000004200000042095
:10025000C4800510001004200010042000000000DD
:10026000704700000000000008ED00E0000000D032
:100270004018002080E60220D14D0010D502001069
:10028000C94D0010F8B5C04606480749091A8B1039
:10029000C90FC91810B5491003D0044B002B00D06A
:1002A000984710BD401800204018002000000000B2
:1002B000054B10B5002B03D00449054800E000BFF2
:1002C000FFF7E2FF10BDC0460000000064D100202F
:1002D000B8C4011030B583B004F0B8FE00F06EF879
:1002E0000B2000F00DFFD0238022022512011B06F7
:1002F0005A62244B24481D6001F0C4FF00220421EF
:100300000A2008F039F8214C0022206001210A203F
:1003100008F032F81E4B18602368002B2DD00028FF
:100320002BD01C48002404F0DFFE032380221A494E
:100330000093520023001948019408F0CBFC80225E
:10034000009501252300164952001648019408F033
:10035000C1FC23008022144914480194009508F040
:10036000B9FC8022230012495200124801940095E2
:1003700008F0B0FC08F04AFDFEE70F4804F0B4FEB8
:10038000FEE7C04600E004401027000044E50020DE
:10039000B8370020D0C40110E4C40110910E001041
:1003A000F0C40110390C0010FCC401101504001039
:1003B00014C50110BD0A0010B8C4011010B509F031
:1003C00089FC1F211A2000F0E7FD002200211A20DD
:1003D00000F0FCFD00211A2000F07EFE1F211B20F2
:1003E00000F0DAFD002200211B2000F0EFFD0021CB
:1003F0001B2000F071FE162000F082FED023802228
:100400001B06D2039A6201210022162000F0DEFDB5
:1004100010BDC046F0B5DE464E4657464546544BE5
:10042000E0B59B4687B0180000F0C2F95846514924
:1004300000F0F0F904ABDE1D0023994633704E4BFB
:100440004E4C01934E4B4F4F03934F4B00934F4BEA
:1004500002934F4B9A46E023DB01984642462368BD
:10046000022013403B60002101F098FE0422494B1A
:100470001A60FC3223681342FCD0FA2263685200EF
:100480009BB293423CD3444D9D42AD4180232268B0
:100490005B015340424613403B600220002101F0C3
:1004A0007DFE04223B4B1A60FC3223681342FCD0D1
:1004B000FA22636852009BB2934216D3364A9342A3
:1004C00020D8012D30D001354AD03378994508D055
:1004D0005346002218683100002307F09FFF33784D
:1004E0009946642008F0C8FDB8E7012D15D0013504
:1004F00028D05846009900F08DF903233370E5E7C2
:100500000125C3E7012D16D0013522D058460299A6
:1005100000F080F904233370D8E75846019900F0C1
:1005200079F902233370E4E75846019900F072F933
:1005300002233370CAE75846019900F06BF9022391
:100540003370E3E75846039900F064F901233370F0
:10055000CFE75846039900F05DF901233370D5E7E2
:100560005846039900F056F901233370AEE7C046B0
:10057000E02E002028C5011030C5011000C0044045
:1005800038C5011000D0044040C501104CC5011011
:10059000B837002000E00440AC0D0000F0B5DE46A6
:1005A000574645464E46E0B50F009A468BB0149B21
:1005B0000600C8B242499B46D3B2394098461B0256
:1005C0000B4351461500D208D2B2140423431B0238
:1005D00009061B0A0B4333605B465043736030616E
:1005E000013002F0DFFEF060002867D0354B03AC2D
:1005F00003934346013B2371D32363718023DB01C3
:10060000E3808D232372337A0130F0606D00002B7C
:1006100048D11423BD424BDB1221F12263722A4BD5
:1006200025276381DA2323735A3BFF3BE381593348
:10063000FF332374254B61736382254B62740893E7
:1006400000232376234B6F449846234B02AD9946F3
:100650000CE0013003D14146204804F0C9FD0134CB
:10066000A74217D073689B46F3789A4600232278F6
:100670002B706A70514600932A000233584609F0E5
:1006800049FC831CE5D141464846013404F0B0FDE5
:10069000A742E7D101200BB0F0BCBB46B246A94649
:1006A000A046F0BD1023BD4205DB12212222B5E792
:1006B0000221F122B2E702212222AFE73061EAE70C
:1006C000FF00FFFFAED580A8A1C8FFFFDB30000010
:1006D000A4A6AF2054C5011084C5011064C5011043
:1006E000F0B5CE464746212380B5027887B004ACEA
:1006F0002380531EA3702223E37000232371837889
:100700000500013B6371402A03D1202363703F330E
:10071000A3701627224B6F449846224B03AE99468E
:1007200008E0013003D141461F4804F061FD013467
:10073000BC4213D00023227833707270E978686865
:1007400032000093023309F0E5FB831CE9D14146F6
:100750004846013404F04CFDBC42EBD14022002459
:10076000EB68013B1A702B69EA68E9786868013325
:10077000013A009409F0CEFB831C0BD0013004D069
:1007800007B0C0BCB946B046F0BD0849064804F001
:100790002FFDF5E70549034804F02AFDF0E7C046C0
:1007A00054C5011084C5011064C5011094C5011021
:1007B00030B5164D83B004001549280009F082FBBE
:1007C00003210E2000F0E8FB03210F2000F0E4FBE2
:1007D000002201210E2000F0F9FB002201210F2050
:1007E00000F0F4FB00234022237280213C332000E0
:1007F0000095FFF7D3FE00212269E06802F02AFE8F
:100800002000FFF76DFF03B030BDC0466812002026
:10081000801A0600F0B5DE4657464E4645460300B0
:10082000E0B51A6980460C00C068002189B002F06A
:1008300011FE00239E4A1E001700390000254B7848
:100840002A0001310135002B04D0152DF7D11422D7
:10085000143D05E068004019802540002D1A6D10F8
:10086000781C82180391049339780B00203B5E2B8F
:1008700025D88B005B188F495B1B5B18691D894667
:100880002800A246195C3400019108219C46934639
:10089000029105950123019A13421CD1019B013459
:1008A0005B080193029B013BDBB20293002BF1D169
:1008B000013063465A46059D4845E3D15446013709
:1008C00006359742D0D1049B08360399F6B2002B27
:1008D00017D00F00B1E70723012123409940434679
:1008E0000D001978E2088842D8D243465B789C42D2
:1008F000D4D243465143DA680918535C1D4355541A
:10090000CCE723782025002B00D1A0E02900434626
:10091000260000227078150001360132002800D12F
:10092000BFE02A2AF6D12925E63A0B321700621CCD
:10093000944620000C00604AAC4490464A1C049245
:100940003100624626000578203DECB25E2C00D9CD
:1009500098E00B246442A446BC4464460194AC0075
:1009600064190A256D42A946B9444D46844691460C
:1009700008000534444408210391614622788246E8
:100980000292A346049A05960691079709E00299F8
:1009900002324908029103990139C9B20391002931
:1009A0005FD0012102980142F1D01878019E541EB7
:1009B000B04226D959788C4212D2E1084143D86816
:1009C000B4460700072001262040864030003E0044
:1009D00061447F5C384370541878604511D9597868
:1009E0008A420ED2D108414301980127844607204C
:1009F000104087403800DE686144775C38437054AB
:100A000018788542C3D259788C4210D2E10841430C
:100A10000720204001248440DE682000340049196A
:100A2000765C304360541878A842B0D959788A422D
:100A3000ADD2D10841430720012610408640300046
:100A4000DC684919665C30436054A0E7984640462C
:100A5000FFF746FE09B0F0BCBB46B246A946A04629
:100A6000F0BD5C46069A079F9446019A0235023211
:100A70005046059E01340192BD4200D07BE7010043
:100A80004A46604601300C37824200D05BE73200B4
:100A90000E00110032781031C9B2002AD6D03400CD
:100AA00036E75000801880228000121A52103CE76E
:100AB000A4C5011015E80110B0E80110F0B5C64654
:100AC00000B582B002E0642008F0D6FA04F026FEF9
:100AD0000028F8D01F4B204E9846204D204F214C27
:100AE00080232268DB015340E022D20113401E4ADA
:100AF000136004221D4B1A60FC3223681342FCD0A1
:100B000060680004000C02F0C3FB194902F0B9FB55
:100B1000184902F09CFB184902F09FFB011C174882
:100B200002F095FB02F0D6FB01000190300004F0CA
:100B30005FFB012200232868524201A907F06EFCE6
:100B4000012803D1380004F0CFFAC9E7404604F089
:100B5000CBFAC5E720C60110BCC5011044E5002052
:100B6000F8C5011000C0044000D0044000E004407B
:100B70006740533A6ABC343F2D93E13A0000D841B4
:100B8000110010B5002A03D1034804F0ADFA10BDDE
:100B9000024804F02DFBFAE74CC6011074C60110A0
:100BA00010B5002903D1044804F09EFA10BD034893
:100BB00004F01EFBFAE7C046A0C60110C8C601102B
:100BC000F0B5C64600B58CB00700080003A99046F2
:100BD0001E0013F017FF00281CD01AF0A1F9114BCA
:100BE000041E18601AD01022002107A802F032FC5F
:100BF0004346002204AD0593009220000A4B0B4AA5
:100C0000019503A9049706961AF092F90CB080BCDE
:100C1000B846F0BD064804F067FAF7E7054804F067
:100C200063FAF3E7A4240020810B00105B070000A7
:100C3000E8C60110F4C60110F0B557464E464546C9
:100C4000DE460023E0B5D027A5B0139304930693A6
:100C50007F4B002605937F4B3F0698467E4B0D93B6
:100C60007E4B11937E4B0C937E4B9A467E4B0793A3
:100C70007E4B10937E4B99467E4B0F937E4B089391
:100C80007E4B09937E4B0A937E4B0B937E4B0E93C8
:100C900076E008F033FA049B0400002B00D181E0D9
:100CA0004B460EA98C461868132363441900002292
:100CB00007F046FD069BE51A002830D00EABDA7C23
:100CC000089B013AD2B2032A02D80F9B92009B588C
:100CD000099A402114A804F01DF814A90A9804F0F8
:100CE00087FA14A81BF0AAF9524683B21068079A33
:100CF0000B99029203960196009614AA19F05AFFD6
:100D0000002800D08DE080231B019B4632207B61B0
:100D100008F0B2F95B466420BB6108F0ADF95B4BAB
:100D20009D422AD943460022186813A907F008FDFE
:100D3000002822D0139B0D9A402114A803F0EAFF4B
:100D400014A90E9804F054FA14A81BF077F952462F
:100D500083B21068079A0C99029203960196009646
:100D600014AA19F027FF002864D180252D01322014
:100D70007D6108F081F9BD610694642008F07CF97A
:100D8000059B1D78002D84D100230493F5E7642092
:100D900008F072F9059B1B78002B55D008F0AEF9CE
:100DA0000694040043460022186813A907F0C8FC03
:100DB000002800D174E7139B0D9A402114A803F07A
:100DC000A9FF14A9119804F013FA14A81BF036F91E
:100DD000524683B21068079A0C99029203960196C4
:100DE000009614AA19F0E6FE002828D14B460EA959
:100DF0008C461868132363440022190007F0A0FCF6
:100E0000002813D1643008F037F9059B1B78002BBC
:100E1000BDD09B4608F072F95B460694049304002B
:100E20003EE70100109804F0E3F96CE7049506949E
:100E3000002543E70100109804F0DAF995E7010076
:100E4000109804F0D5F9D1E700230694049394E7B1
:100E50007CE6022044E500203CC7011040C7011099
:100E600070C70110A4240020A10B001014C70110AA
:100E7000B837002090EA011034C7011090C7011064
:100E800094C70110BCC70110D8C701102F7500000E
:100E9000F0B557464E464546DE46E0B52C4B8BB086
:100EA00007932C4B2C4D03932C4B2D4F04932D4B20
:100EB0002D4E05932D4B06932D4B9B462D4B9A465D
:100EC0002D4B99462D4B98462D4B01932D4B02935C
:100ED0002D4B08932D4B09931AE013F0B7FF03989D
:100EE00004F002F904992A4B2A4A059813F0BCFF32
:100EF00004000100069804F07BF9002C19D0089832
:100F000004F0F2F8099804F0EFF8214808F0B4F87A
:100F10002B78002BF9D1380004F0E6F8300004F00B
:100F2000E3F813F0F3FF0028D7D0079804F0DCF8BB
:100F3000E8E7584604F0D8F8504604F0D5F8012305
:100F400042462B7001994B460298FFF739FEDCE7C9
:100F500054C8011080C801107CE6022014C9011099
:100F6000FCC8011020C9011030C801109CC8011034
:100F7000C0C801102CC9011048C9011058C901107E
:100F800064C9011074C90110E0C8011080C90110C2
:100F90001027000004004000094A83009A1810B589
:100FA00014684022544080322240064CC000A446BF
:100FB00063441A60044B9C466044416010BDC046C7
:100FC00004C0014004D0014000400140074B8000B4
:100FD000C3181B68C90092000A435A400C231340EF
:100FE000034A9446604403607047C04604C0014011
:100FF00004D001408000002905D0064B9C46022306
:10100000604403607047044B9C46022360440360C5
:10101000F8E7C04604E0014004F00140D0231B067D
:101020001B6830B50500584243412F205B42834383
:101030000E48EC08844607202840800081402000AC
:101040000B4D3C3063448000A40041511B19002A21
:1010500005D08022920194466344196030BDC022BD
:101060009201944663441960F8E7C046304101405C
:1010700000400140D023F0B5C6461B0698461B68C9
:101080000C4F9B001600FA5804000D0000B51042EA
:1010900009D1290014430D203200FC5000F0ACF9B6
:1010A00080BCB846F0BD01F02FFC43461B689B0096
:1010B000FA58EEE7F0E3002010B504000D2000F030
:1010C00095FAD0231B061B6802499B005A58A2437D
:1010D0005A5010BDF0E300208000002905D0064BD7
:1010E0009C464023604403607047044B9C46402369
:1010F00060440360F8E7C04604E0014004F00140AA
:101100000123D0228340120693629361094A83002F
:101110009A1811684022514080320A400649C000A6
:101120008C4663441A60054B9C460523604443602B
:101130007047C04604C0014004D001400040014057
:101140008023DB051868000F7047C0460FB400B558
:10115000084883B003F0C8FF049B002B07D005A903
:101160001800019103F0FCFD034803F0BDFF0120CE
:1011700003F00EFEACC901104CE5011010B501489A
:10118000FFF7E4FFBCC90110EFF3108072B6034A09
:101190001368002BFCD0BFF35F8F70472C0100D089
:1011A000BFF35F8F0022024B1A6080F310887047F4
:1011B0002C0100D070B5EFF3108C72B60D4D2B687A
:1011C000002BFCD0BFF35F8F0724CB08C618C05C90
:1011D00001230C40A3401C000440034207D11843E4
:1011E0003070BFF35F8F2C608CF3108870BD1000DF
:1011F000FFF7ACFF2C0100D0F8B54746CE46884635
:1012000080B5EFF3108C72B61C4D2C68002CFCD00E
:10121000BFF35F8F9A4222D807210126894602E058
:101220000132934218D34D4637001540AF40D408E1
:101230000119045D2742F3D110003C430C70BFF349
:101240005F8F00220D4B1A608CF3108800280EDB94
:10125000C0BCB946B046F8BD01204042EFE7BFF33D
:101260005F8F00232B608CF310880120404243469F
:10127000002BEDD00898FFF769FFC0462C0100D085
:1012800030B5EFF3108C72B60A4C2368002BFCD0FB
:10129000BFF35F8F072301220B409A40CD08435DC7
:1012A00093434355BFF35F8F002323608CF3108873
:1012B00030BDC0462C0100D0044A1078431CDBB27C
:1012C000172B00D9102313707047C046A0110020BF
:1012D00010B5064B064C82B00100009318221F2364
:1012E0002000FFF789FF02B010BDC046CCC9011035
:1012F000982400200021044B044ABFF35F8F02C3EF
:101300009342FAD17047C046000100D0800100D05E
:10131000054B064A1360064A136053609360D3601E
:1013200013615361936170478080808000E400E026
:1013300004E400E01F2318401E3B8340002905D031
:10134000C021044A4900535013607047802201496C
:101350008B50FAE700E100E001228240034B1B685A
:1013600013405A1E9341D8B27047C04600E100E0D6
:1013700001238340014A13607047C04600E200E049
:10138000064B10309B688000C358054A00209B1A0A
:101390002F229A424041C0B27047C04600ED00E0A3
:1013A000A411002070B50D00EFF3108672B60F4A3D
:1013B0001368002BFCD0BFF35F8F0D4B10309B6880
:1013C00084001B590B4A934203D09D4201D001F087
:1013D0009BFA074B9B681D51BFF35F8FBFF35F8F75
:1013E0000022024B1A6086F3108870BD240100D0E1
:1013F00000ED00E0CD010010F0B557464E46DE4648
:101400004546E0B585B0060000911700EFF3108B5C
:1014100072B66A4A1368002BFCD0BFF35F8F0025B9
:10142000674B5D579A46002D00DAA9E06B00654CCA
:1014300001935B199B009846A146C1444B46524616
:101440009B7910361370604BB6009B6899590B1B43
:101450002F2B33D95D4B994200D0ACE0019B424623
:101460009C465B4B6544AD0063535A4B0232A21855
:10147000043B9B1A1B05584A5B0D651913436B808F
:10148000564B0121AB80FF23AB71009BEF71AB602A
:101490004B460B4319004C4B9B689951BFF35F8F30
:1014A000BFF35F8F0022454B1A608BF3108805B0A5
:1014B000F0BCBB46B246A946A046F0BD01200A00DA
:1014C0008243D3798C46BB4231D845461300444908
:1014D0001B1B5B415943090D3D4B63533D4B02358B
:1014E0006519043B5B1B1B053B4D5B0D2B43AA465B
:1014F0004D466B800425AC465546E044131F4444DA
:101500001B1B1B055B0D1D434B46997100999D806C
:1015100099604946DF71334B01431360BBE75800C4
:10152000C01880002018C179B9422FD902000623C3
:10153000D356002BF3DA02932B4B61460393131D12
:101540009A4604235B429C46E14450464B461B1A94
:101550001B055B0D9C46204B9571984663464046A3
:1015600003439380019B5A199200039BA418A38004
:10157000029B1C4AA371009B2260E771A3608AE76B
:1015800001F0C2F9002553465D574FE7908802935A
:101590004005131D9A46031561469C464046D444B7
:1015A000634604302018181AE0230005400D1B0282
:1015B00018430390C5E701F0A7F94FE7240100D0D5
:1015C00070E60220A411002000ED00E0CD01001023
:1015D00000A1FFFFD411002000E0FFFF01BDFFFFCD
:1015E000AAAA00000148804701BD0000F0B5DE4610
:1015F00057464E464546E0B50C0083B0EFF31088E1
:1016000072B6634A1368002BFCD0BFF35F8F614B47
:1016100061499A68030010339F00D55901938D42A8
:1016200043D0A54254D05D4EAA1B2F2A3DD85C4B17
:101630009B461B68994601231A009C4682404B46F4
:1016400013401F2299466346024093409A468022E7
:101650005B4650469850BFF35F8FEFF305839B4680
:10166000002B37D0019B5B4501D001F04DF90123E0
:101670002A009A439068844208D176E04B005B18B8
:101680009B00F3189868844236D01A000621515600
:101690000029F3DA844254D04B46002B27D0C022D5
:1016A00051463F4B5200995019603A4B9B68DD51AF
:1016B000BFF35F8FBFF35F8F0022354B1A6088F353
:1016C000108803B0F0BCBB46B246A946A046F0BDA8
:1016D0000D00EAE72A0063469A4390688442D5D118
:1016E00006201056130000280ADA0D0031E080238E
:1016F00051462B4AD150D8E706201856002821DB46
:1017000042001118890074188B46A1689960E1792C
:10171000D971062161569971002924DBA488F11A38
:10172000640524155C44091909051E4C490D214323
:10173000998013181C4A9B001178F3189971107046
:10174000AAE713005946002914D1FF3191711749B6
:10175000918015490A789A71154A9B1B5B415A433F
:10176000120D0A7098E71149E2E70620105613009F
:101770000028C5DA0F4A1049D21A083A5002400D23
:10178000014399800D4952080A43DA8084E7C04634
:10179000240100D000ED00E0CD010010A4110020D4
:1017A00000E100E000E0FFFF70E6022001BDFFFF66
:1017B000AAAA0000DE11002000F0FFFF00F8FFFFE2
:1017C00010B58308040003202040FF24054AC00010
:1017D0009446844081409B0063441A68A2430A43B4
:1017E0001A6010BD00E400E070B501240443EFF37B
:1017F0000581EFF3108C72B6214A1368002BFCD0E0
:10180000BFF35F8F1F4B05001F4AED1A6D416A43FE
:10181000120D1E4D8900AE6852B27658A6421CD0F9
:101820000621595691421CD012215956914222D07C
:101830001E215956914220D02A2159560324914203
:1018400010D0134B19781A708171BFF35F8F00228B
:101850000B4B1A608CF3108870BDAB680D4C5C505C
:10186000EFE700246100091989005B18FF219971D5
:1018700009499980E5E70124F4E70224F2E7C0462C
:10188000240100D0A4110020AAAA000000ED00E06D
:1018900070E60220CD01001001BDFFFF1F2110B531
:1018A000091A0248FFF7ECFC10BDC0467BE6022097
:1018B00010B5084B084C82B00100009300220523AC
:1018C0002000FFF799FC002801DB1F23181A02B043
:1018D00010BDC046E8C901107BE6022070B50400C7
:1018E0000E001500FFF7E8FC0100200000F006F8EC
:1018F000A680E580BFF35F8F70BDC046024B9C465B
:10190000614489000160704740000034F8B5124C12
:10191000124DAC4212D20126002776422368002BDA
:101920000DD0FFF7C9FC01002000FFF7E7FF66605C
:101930002772BFF35F8F0C34AC42EFD3F8BDFFF7D3
:10194000BBFC01002000FFF7D9FF6660BFF35F8F8B
:101950000834AC42E2D3F1E73018002040180020F0
:1019600010B50400FFF7A8FC01002000FFF7C6FF38
:1019700001235B426360BFF35F8F10BD10B50400AD
:10198000FFF79AFC01002000FFF7B8FF01235B423C
:10199000636000232372BFF35F8F10BD10B5040096
:1019A0000120FFF795FC034BC3189B002360BFF396
:1019B0005F8F10BD40000034034B9C46614489009A
:1019C0000160BFF35F8F704740000034F0B5DE4622
:1019D00057464E464546E0B587B0EFF305830322F0
:1019E00001251A40954091008846A946B34B0392C1
:1019F0005C58B34B1D60B34B04934B46B2484363F2
:101A00000823E55E002D37DAA3881BB2002B00DB2C
:101A1000ADE0A379002B00D0EEE00823E05E0028C3
:101A200020DB430062691B18DB00D3189E68DD6869
:101A3000731C00D111E1A44801004144826A0B6982
:101A4000B71A9B1A9F4215D30123026A0398834059
:101A50001A420FD09C4800F03FFD8D4202DCCCD1F1
:101A60008642CAD940BF07B0F0BCBB46B246A946C1
:101A7000A046F0BD0E61EDE762696B0092465B190E
:101A8000DB009A4453469E68DF6800F025FD8F42D4
:101A9000BADC00D103E1002F00DAE8E052465346F9
:101AA00052691B699346049A934200D1D9E0524689
:101AB0000821605E52880004594610439847009000
:101AC00001910099019A0B001000134300D1CEE060
:101AD00013000A00B61A9F41002806DB7A4800F07E
:101AE000FBFC009E019F36184F4153469E60DF600D
:101AF00000229A5E002A00DA86E75300991860698E
:101B0000C900411802938B68C9689B46B94200DD41
:101B10007AE702D1B34200D976E708239C46A44471
:101B2000059565462281A446029B2C0006E05300E1
:101B30009918C90041188D68C968AB469B18DB002D
:101B4000C318B94206DC00D1B3E01C000023E25EFA
:101B5000002AECDA230064469C4653461A8063460A
:101B6000059D1D80A3881BB2002B00DA51E7226976
:101B7000EFF3108172B61368002BFCD0BFF35F8FB8
:101B80000123A7885B42A3803FB22369BFF35F8F25
:101B900000221A6081F31088002F00DA39E7230051
:101BA000083322009A4666697B00DB19DB00F318D4
:101BB000996850468C460824115FDD68002910DBC7
:101BC000029306E0AB4244D00023E15E20000029EE
:101BD00006DB4C006418E4003419E368AB42F1DD25
:101BE000029B078000201F5E1980002FDCDA1400A2
:101BF000A379002B00D110E70023A371260008234E
:101C0000E15E08364B1C00D12CE70800A24665694E
:101C100002E03E004B1C1AD04B005B18DB00EF18B3
:101C20000A008C46E95E7B881BB2002BF1DA0123A7
:101C30005B42DC17BB60FC60824205D053463180BA
:101C40001B893B8053461A8160464B1CE4D15446A5
:101C5000E5E6A3686345B7D9C2E76B1C00D0EAE6A6
:101C6000F8E65B4658461B69984700281BD1534647
:101C70001B8822692381EFF3108372B61168002953
:101C8000FCD0BFF35F8F514662880A80226965806D
:101C9000BFF35F8F0021116083F31088B4E68642A2
:101CA00000D8F8E6B0E65B461A685B6800920193DC
:101CB00007E7B34500D848E74CE7C04684D1002089
:101CC0003C700540CD19001000400540074810B594
:101CD0000268EFF3108172B61368002BFCD0BFF3DB
:101CE0005F8F06F015F80020002110BD14E50020DC
:101CF00070B52E4C2569002D04D00A212C48FFF721
:101D0000FDFD70BD2B4E0321300000F0C1FBE660ED
:101D1000FFF7D2FA284B03229C46D02322701B06E1
:101D20001B6801216370254B6044A3600F23800072
:101D300020610220638063694942A18019800231D9
:101D4000198647311D83585218315A5275325C3901
:101D50009952183201319952183201319952183280
:101D600001319952083518329D5202311832995278
:101D70001832013199521832013199521832013119
:101D800099521832013199521832013199520C4B43
:101D90000C49DC6001303562FFF704FB01210320B0
:101DA000FFF7C8FA084B1D60A7E7C046EC110020FA
:101DB00014E500200040054040000034FFFF100003
:101DC00084D10020CD1900103860054000487047CC
:101DD000EC110020F8B5050018200F0001F0E2FA20
:101DE000041E3ED01821380001F0FAFA012160618A
:101DF000280000F061FBE5600600FFF75DFAD022E5
:101E0000267012061268184B62709C460122BBB203
:101E100052426044800063819B1820612281A2802D
:101E20006380002F0BD079006269C919C9000F4B7C
:101E300089181380013318329BB28A42F9D10127E5
:101E4000B7400B4BB20030000A492F62D450FFF765
:101E5000A9FA01213000FFF76DFA074B9C46654453
:101E60002F602000F8BDC04640000034FFFF000096
:101E700084D10020CD19001038200000124B70B51D
:101E8000040098421ED0012205781049AA408C46D1
:101E9000C36801211A6263441A602800FFF74AFAF6
:101EA0000B492800FFF7A2FB280000F0FBFA0021F5
:101EB0002278084B60699200D15001F0B3FA2000FB
:101EC00001F0B0FA70BDC046EC11002038300000BF
:101ED000CD19001084D10020F8B51F0008AB1B7885
:101EE00004001600002B08D100F0FEFA32003B007F
:101EF000121A8B41002B00DA52E02269EFF31080B6
:101F000072B61368002BFCD0BFF35F8F0223E15E33
:101F100063694A005218D2009B182269002936DBF7
:101F20001D886580BFF35F8F0025156080F31088E2
:101F3000069A9E60DF601A61079A5A615A880132D8
:101F40005204520C101C002A1FD082B25880080480
:101F500010432669EFF3108772B63268002AFCD06E
:101F6000BFF35F8FA2881A80A1802369BFF35F8FC0
:101F700000221A6087F310880A4923788C460132C0
:101F80009A40E36863441A60F8BD0120DDE7BFF3BF
:101F90005F8F0023136080F3108801204042F3E735
:101FA0000020F1E73C20000070B501000469EFF368
:101FB000108C72B620680028FCD0BFF35F8F02201F
:101FC0000D5E4C6968004019C00024180869002D96
:101FD00036DB26884E80BFF35F8F002606608CF3C9
:101FE0001088E36063880498013320615B040598DE
:101FF0005B0CA26060611A1C002B1FD093B22804F6
:10200000628018430A69EFF3108C72B61368002BD4
:10201000FCD0BFF35F8F8B8823808D800B69BFF36B
:102020005F8F00221A608CF310880B7801329A407F
:10203000CB6808498C4663441A6070BD0122DDE715
:10204000BFF35F8F002303608CF3108801204042B0
:10205000F3E7C0463C20000010B543890A149342C0
:102060001ADD53009B184269DB00D3180469EFF3B3
:10207000108C72B62268002AFCD0BFF35F8F5A889A
:10208000090494B2090C8A4208D00369BFF35F8F38
:1020900000221A608CF31088002010BD80221202EA
:1020A00014435C80012302698371BFF35F8F0021B9
:1020B00011608CF31088044902788C469340C26802
:1020C000012062441360E8E73C200000407870473C
:1020D000F0B54746CE46060080B596246442E51723
:1020E0000F00A4197D4183B08D4215D812D000F0A5
:1020F000FBF922002B00121A8B41002B16DC002B5F
:1021000040D03000390000F0F9F903B0C0BCB94646
:10211000B046F0BD8442EAD90024002500F0E4F97D
:1021200022002B00121A8B41002BE8DD00F0DCF9B5
:1021300022002B00121A8B41002B0ADB0023019393
:10214000124B2200009312482B00FFF72DFF0130A5
:10215000D7D0A846A1460F4D0F4C6B6A984504D8BE
:10216000AA6A4A45CDD29845CBD12268EFF31081B7
:1021700072B61368002BFCD0BFF35F8F200005F010
:1021800093FDEAE7002ABCD0D0E7C046CD1C001082
:10219000EC1100200040054014E50020F0B5CE46CB
:1021A000474680B583B004000D0000F09DF9241867
:1021B0004D41002D02DA01242D4D644296267642CF
:1021C000F71736196F41AF4215D812D000F08CF9CD
:1021D00032003B00121A8B41002B18DC002B43D03D
:1021E0002000290000F08AF903B0C0BCB946B0460F
:1021F000F0BDA642EAD90022002316001F0000F01D
:1022000073F932003B00121A8B41002BE6DD00F01F
:102210006BF932003B00121A8B41002B0ADB0023C2
:102220000193144B3200009313483B00FFF7BCFEB0
:102230000130D5D0114BB1469846114E736A9F427A
:1022400004D8B26A4A45CBD29F42C9D143461A68E4
:10225000EFF3108172B61368002BFCD0BFF35F8FD1
:10226000404605F021FDE9E7002AB9D0CFE7C04696
:10227000FFFFFF7FCD1C0010EC11002014E50020B3
:1022800000400540F0B5CE46474680B583B0040017
:1022900000F02AF9FA2206000F0020000023002196
:1022A000920000F0B7FF8019794104000D1E02DA98
:1022B00001242D4D644296267642F71736196F4158
:1022C000AF4215D812D000F00FF932003B00121ABD
:1022D0008B41002B18DC002B43D02000290000F09C
:1022E0000DF903B0C0BCB946B046F0BDA642EAD96C
:1022F0000022002316001F0000F0F6F832003B0019
:10230000121A8B41002BE6DD00F0EEF832003B00A4
:10231000121A8B41002B0ADB00230193134B32006E
:10232000009313483B00FFF73FFE0130D5D0114B1F
:10233000B1469846104E736A9F4204D8B26A4A4525
:10234000CBD29F42C9D143461A68EFF3108172B6CF
:102350001368002BFCD0BFF35F8F404605F0A4FC50
:10236000E9E7002AB9D0CFE7FFFFFF7FCD1C0010BF
:10237000EC11002014E5002000400540F0B5574660
:102380004E46DE464546E0B506000F0085B0EFF349
:10239000058399468B46002B12D0384900204B6AA2
:1023A000BB4206D38A6ADB1B591E8B41B2424041B5
:1023B000184305B0F0BCBB46B246A946A046F0BDE6
:1023C0002F4B9A46DB68984653461B78404603934A
:1023D00000F082F84246039B040004339B009B58A4
:1023E0000D001B1A39003000001BA941894510DC83
:1023F0000DD020BF214A0020536A5B45D9D3926A91
:10240000DB1B591E8B41B24240411843D1E7834246
:10241000EFD900F069F832003B00121A8B41002B13
:102420001ADB00230193174B3200009350463B0008
:10243000FFF7BAFD011E0FDD104B5A6A5A451BD338
:102440009B6AB34216D35046FFF706FE0B4A0020A4
:10245000536A5B45ADD3D2E7084A0020536A5B4517
:10246000A7D30020926ADB1BB24240415A1E93411F
:1024700018439EE75A45E6D120BFE4E700400540F7
:10248000EC110020CD1C00100048704700400540B2
:1024900010B5024A0248FEF78DFE10BD04CA0110B5
:1024A0009C24002010B5034B01001800FEF7E8FE45
:1024B00010BDC0469C24002000B5054B83B000939E
:1024C000002203230348FEF797FE03B000BDC04679
:1024D00028CA01109C2400200300416A0A00986A5F
:1024E000596A8A42FAD17047034B596A0A00986ABE
:1024F000596A9142FAD1704700400540064A536A32
:102500009942FCD807D1044B02E05A6A914202D1A9
:102510009A6A9042F9D8704700400540F8B5DE4607
:102520004E4657464546E0B58B4605000A991800C9
:10253000160000F0F5FA0A9B6C001F02324B64197A
:102540009C46A4006444636881469F4200D967604A
:102550002B1FDBB29846012B30D9C02380229B0170
:10256000E31812011A60294BAD0059599A46002907
:102570001BD17301E026226853401E40802342464F
:102580005B01E3181E60012A30D9802380229B0161
:10259000E31812011A6053464A4667605A51F0BC6C
:1025A000BB46B246A946A046F8BD586900F0B8FA45
:1025B000013043001B18033BFDD2DAE75B46012BD9
:1025C000CBD1C02303229B01E3181A60023AA3680F
:1025D0001A42FCD07301E0262268AD0053401E4031
:1025E00080230A4A5B019246E3181E605A4621681E
:1025F000514003220A401A6001225B469A40A368B8
:102600001A42FCD0C1E7C04600800040A824002048
:10261000F0B546464F46D646C0B51F00344B440081
:102620009C462418A4006444636888461600FF2B67
:1026300002D880235B006360031FDBB29A46012B44
:1026400030D9C02380229B01E31812011A60294B64
:1026500085005959994600291BD17301E02622684B
:1026600053401E40802352465B01E3181E60012A3E
:1026700030D9802380229B01E31812011A60802345
:102680005B0063604B465F51E0BCBA46B146A8466A
:10269000F0BD586900F044FA013043001B18033BB9
:1026A000FDD2DAE74346012BCBD1C02303229B01A5
:1026B000E3181A60023AA3681A42FCD07301E026BC
:1026C0002268850053401E4080230A4A5B019146E0
:1026D000E3181E6042462168514003220A401A60F6
:1026E000012342469340A2681342FCD0C1E7C04692
:1026F00000800040A8240020014B8000C058704793
:10270000A8240020F8B5040021481E0017000D0081
:1027100000F006FA0100380000F002FA069B3604C9
:102720001B031E432368002B20DB1A4B1A49E318B6
:102730005A1E93418022920194465B421B0B174A1A
:102740001B0363441360164A13601F000A68974313
:10275000FBD1144B2560E2182123A060136023688D
:10276000002BFCDA0823E6601360F8BD3F232268E3
:102770001340AB42D9D1A3681B051B0D8342D4D1B2
:10278000EE22E368D2021340B342CED1EDE7C04659
:10279000001BB7000040FDBF08C0004000E0004043
:1027A00000F000400430000010B580241C4BE4050C
:1027B0001C6000281AD001231A4C18431A4BDC6104
:1027C0001A4C44401C62596298628021144BC9051E
:1027D0001960174817490860E021C9041960002AE8
:1027E00007D18022144B12061A6010BD0E4BD8611F
:1027F000EBE753019B1A9B009A18802312015B049C
:102800009A4209D213000D490B60074B5A6080228F
:10281000094BD2051A60E8E7094B1A00F3E7C046F6
:1028200000B00540D3C007B0008005402D3FF84FF1
:10283000FCFF01000820014000A00540C437002033
:10284000FFFFFF008023024A9B000B43D3627047C7
:1028500000800540002310B50100988A1B8B984723
:1028600010BDC046162310B50100188802331B881E
:10287000984710BDF8B54746CE4680B50F1E18D014
:1028800014239946043304000025012698464B463C
:102890001888434621681B88984701C4431E984105
:1028A00001350640AF42F2D13000C0BCB946B04657
:1028B000F8BD0126F8E7C046002370B504000D00FE
:1028C000988A05491B8B984703000020002C01DBE8
:1028D0000130A0402900984755420000AA23064A2B
:1028E0001B0113608D235B00D3600449044B196006
:1028F0005368002BFCDA70470040024000B0FA0039
:10290000006002407047C04610B50148FEF71EFC4B
:102910003CCA011070B5074D074EB54209D20024DC
:10292000013E761BB60808CD984723000134B34218
:10293000F9D170BD70C40110ACC40110054B064A3A
:1029400006491A60064A074B1A6010000B68984344
:10295000FBD1704700E00040BFCDFBFE08C0004047
:10296000FE7F3C0000F00040044BDB6C002B03D1E9
:102970008022034BD2021A607047C04600001150FB
:102980004C201150044A054B1A60054A1368DB01BC
:102990008033FBD17047C046FFFFFF0100F00040CD
:1029A00008C000404022034B9A675A671A67DA66EC
:1029B0007047C04600F0014010B5FEF79BFC10BD0B
:1029C00070B5044D044CA968C022200000F048FDF9
:1029D000AC6070BD00ED00E000000020002310B5E9
:1029E000294C82B0A367FFF779FF0122274B1A60B9
:1029F000636C012BFCD10322254B1A60224A936B96
:102A0000012BFCD1013300930121224A22480433D7
:102A1000FFF778FE052301210093204A2048FFF7A5
:102A200071FE0022022104201E4BFFF7F1FD00225F
:102A3000012105201C4BFFF7EBFD002200210720A0
:102A40001A4BFFF7E5FD002200210820174BFFF786
:102A5000DFFD8023DB000093002200210920134BBF
:102A6000FFF75CFD0022104B00210620FFF7D0FD90
:102A70000420FFF741FE0E4900F052F8010000204B
:102A8000FFF7E0FE02B010BD008000403CB0004007
:102A900030B00040002F685900800240008C86470B
:102AA00000C00240001BB70040597307006CDC02F5
:102AB00040420F0001480421014B1847101200202A
:102AC00075280010014B9B68184700001012002069
:102AD000124A936F9B0815D29066D166002905D0E3
:102AE000FFE7FFE7FFE7516F106F704704B58021E4
:102AF0000906C2175140002800D0C84319F048FC0D
:102B0000002104BDF0B5146E556E576F166FFFF7B8
:102B1000E3FF1466556657671667F0BD000000D0E6
:102B2000114A936F9B0813D210665166002905D095
:102B3000FFE7FFE7FFE7516F106F704704B500280C
:102B400001D00020C04319F023FC002104BDC04681
:102B5000F0B5146E556E576F166FFFF7E5FF1466EC
:102B6000556657671667F0BD000000D094464A4A84
:102B7000926F9208624601D228E0C046F0B5464EF8
:102B8000346E756E776F366F00F020F89446424AC7
:102B900014665566576716676246F0BD94463E4A0E
:102BA000926F9208624601D254E0C046F0B53A4EA8
:102BB000346E756E776F366F00F04CF89446364A77
:102BC00014665566576716676246F0BD002B24DB16
:102BD00011D000293EDA00B5C943404200D101318D
:102BE00000F038F8C943404200D10131DB43524282
:102BF00000D1013300BD002AEBD1002801D100290A
:102C000005D00020C90FC90701D1C043410800B554
:102C100019F0AEFB0022002300BD00B500290ADB3D
:102C2000DB43524200D1013300F014F8C943404263
:102C300000D1013100BDC943404200D10131DB4325
:102C4000524200D1013300F005F8DB43524200D17B
:102C5000013300BD002923D1002B18D1002A0CD04C
:102C6000BC460D4F38667A6600210023FFE7FFE778
:102C7000FFE77A6F386F67467047002801D0074832
:102C8000010000B519F074FB0022002300BD020012
:102C90000B00002000217047000000D0FFFFFFFF65
:102CA000002B00D0BFE0130C28D1002AE7D080B45D
:102CB000114F39667A66FFE7FFE730B4040C7B6F8B
:102CC000396F1B0423433B667A66FFE7FFE7FFE7A4
:102CD000C04684B27B6F3D6F1B0423433B667A661C
:102CE000FFE7FFE7C04600232C042D0C7A6F386FF6
:102CF00000196941B0BC7047000000D0F0B594469F
:102D00000025140E01D112020835140F01D1120151
:102D10000435940F01D192000235D40F01D1520035
:102D20000135D40B0134254F7C66254C3C660E0CD6
:102D300093B2FFE7FFE7FFE73C6F6643360C77038C
:102D4000BE467343DF0B5B04C01AB941130C7343D7
:102D5000DB18C91ACE086643360CB64493B27343E7
:102D60001F0F1B01C01AB941130C73431F0B1B0526
:102D7000C01AB941860D8F023E436643360C092DB9
:102D800024DB520A7243801A7703460A6643360CE4
:102D900016235B1BDE40DF40BF1964466643821B7F
:102DA0007046043506330100D940A840C01900D34D
:102DB0000131A24206D20023F0BD0000000000D085
:102DC000FFFFFFFF121B0130F3D3F1E709277F1B41
:102DD000FE406446A2B27243801A00D20139220C2E
:102DE0007243130C1204821A99410B007046043589
:102DF00013370100F940A840801900D30131002B9E
:102E000002D1A2420AD2F0BD013000D30131121B1F
:102E1000FAD2013BF8D1A24200D2F0BD013000D37A
:102E20000131121BF7E7F0B51C0C00D080E00CB4A8
:102E300000251C0A04D11B02160E3343120208356A
:102E40001C0B04D11B01160F3343120104359C0BDC
:102E500004D19B00960F334392000235DC0B02D164
:102E600092185B4101351C00971864410134464FAC
:102E70007C66464C3C660E0CFFE7FFE7FFE7C0466A
:102E80003C6F6643360C7703BE4697B27743C01B50
:102E900000D20139C01B00D201399FB27743C91B50
:102EA000C91B170C77437E04FF0B801BB941CE086A
:102EB0006643360C0C2D33DBB644120B1F053A4328
:102EC0001B0B97B27743C01B00D201399FB27743E7
:102ED000C91B170C77433E043F0C801BB941860D7C
:102EE0008F023E43664329277F1BFE400C3D7746F9
:102EF000AF40BF1930BCA2B2ABB272437343801A69
:102F00009941220C7243130C1204801A9941020059
:102F10000B000137001BA941F9D2781E0021F0BD3A
:102F20000C277F1BFE4077467F0BAF40FF19E0E781
:102F300000245D1C07D0144F7D663966FFE7FFE76C
:102F4000FFE7FFE73C6F95B29EB265436643401BC7
:102F5000B141150C1E0C6543664336042F0C3E43ED
:102F60002D04401BB141994204D202000B00200005
:102F70000021F0BD01D19042F7D3801A994101346C
:102F80009942F2D3F6E70000000000D0FFFFFFFFF8
:102F900048404140484018B4134B5B68019308BD5A
:102FA00018B4114B1B68019308BD94460F4A926FE9
:102FB000920805D2624618B40B4BDB68019308BD3A
:102FC0000A4AF0B5146E556E576F166F6246FFF7DA
:102FD000F2FF064A1466556657671667F0BD18B4C7
:102FE000014B9B68019308BD201A0020000000D00F
:102FF000FFB550404240504059404B40594000E0DE
:10300000FFB5154F4C00640D03D0BC4204D10C0336
:1030100014D80020090D09055C00640D03D0BC42E2
:1030200004D11C030AD800221B0D1B0501264B40AE
:1030300009D44B4003D58B4200D18242FFBD994257
:10304000FCD19042FFBD0B43DB1803431343F5D083
:10305000C9434918FFBD0000FF07000000B5FFF796
:10306000CFFF804100BDC04600B5FFF7C9FF01D9C1
:10307000002000BD012000BD00B5FFF7B9FF01D958
:10308000002000BD012000BD00B5FFF7B1FF804169
:1030900000BD012040054A00121804D85A00121839
:1030A00001D800207047012070470000002100284F
:1030B00005D17047C1174840401AFAD0C90713B567
:1030C000064B1B6898470CBC441CA2401005120B11
:1030D0000349091B09051943114310BD10E40020E1
:1030E0001F04000010B54C00620D8023D218DB00D5
:1030F000D21A5B057E2A10DD9E3A13DACC1709033B
:10310000490819435242D140640001341532202A43
:1031100005DAD0400843604310BD002010BD0846CA
:10312000604310BDC80FC018013810BD18B4024B61
:103130005B6A019308BD0000201A002010B5014809
:10314000FEF704F848CA0110132370B51D78012D4D
:1031500019D014DD1D48FFF785FB06001C48FFF75A
:1031600081FB1C4C80223100200000F079F9022DF7
:1031700006D01948FFF76EFB184B186070BD154C50
:10318000174BA364F5E7174B124C23606360A360F1
:10319000E36023616361A361E36123626362A3620D
:1031A000E36223636363A363E36323646364A364ED
:1031B000E36423656365A365E36523666366A366CD
:1031C000E36623676367A367E367D9E753440000B7
:1031D00053460000201A00204C33000010E4002069
:1031E000E93100103D31001007B5604601880A0A38
:1031F0000230DF2AFAD1C9B2820804D3028840889B
:103200000004104300E00068014A5050039007BDDD
:10321000201A002051434343C9188C46110C83B235
:103220004B4310B4040C614392B280B250436243EA
:103230001C041B0C001910BC59411304120CC018BB
:1032400051416144704700004840414048400E4BA6
:103250005B6818470C4B1B6818470C4A936F9B0818
:1032600002D2094BDB681847F0B5146E556E576FE4
:10327000166FFFF7F6FF054A14665566576716671F
:10328000F0BD014B9B68184714E40020000000D0FB
:10329000C10FC90700D54042002817D0F44603B437
:1032A0000B4B1B68984706BC81409E3840428031DA
:1032B00007D20B0607D04900490AC005104308434E
:1032C00060470130F8E7490A8902F5E770470000D6
:1032D00010E4002041000A0E80231B067E2A0BDD2D
:1032E0009E3A0BDAC1174002400818435242D040C0
:1032F000490001314843704700207047C00FC01893
:1033000001387047C0420DD300B54000400800218D
:1033100000F00EF8002801D4404200BD80200006D5
:1033200000BD0000014BDB691847000014E40020D9
:10333000014B5B6A1847000014E4002010B50148F7
:10334000FDF704FF80C50110132310B510481C7849
:10335000FFF788FA0100012C0AD003DD80220D4816
:1033600000F07EF80C48FFF775FA0C4B186010BDA2
:10337000084C5422200000F073F8220008498032E3
:103380002368002B00D1216004349442F8D1E9E78E
:103390005346000014E400204C33000010E40020E9
:1033A0003D33001070B504000A4E300019F040F8AB
:1033B000200018F055FA0500300018F0D1FF002D5C
:1033C00005D0054B2C199C4201D8280070BD03483C
:1033D000FDF7BCFE301800200000042060CA011078
:1033E000F8B506000C000C4F380019F021F8210048
:1033F000300018F0D5F90500380018F0B1FF74431B
:10340000002D05D0054B2C199C4201D82800F8BD91
:103410000348FDF79BFEC046301800200000042042
:1034200060CA011070B50400054D280019F000F8BD
:10343000200018F01FFA280018F092FF70BDC04657
:103440003018002001480421014B184720120020A9
:1034500075280010014B1B6818470000201200203F
:10346000014B5B6818470000201200209A4200D2EE
:10347000885470477047C046F8B55746DE464E46FA
:103480004546E0B599460A9B07009A460D9B88463B
:1034900093460B9C9B073BD10C9B9C423DD21E1B31
:1034A0000B9415000C005E442A004B4601352100A8
:1034B0002020B847B542F7D1A0460B9C002C20D065
:1034C000454636195346321B013C185D29004B46D0
:1034D000B847002CF6D12B00350098460D9B9B0772
:1034E0000FD55B46EC1A0C9BA3420AD94646984678
:1034F0002A004B46310020200134B84701354445AD
:10350000F6D32800F0BCBB46B246A946A046F8BD9B
:1035100016001500002CD3D1E0E716001500002C92
:10352000CED1EEE7F0B54546DE4657464E46E0B50D
:1035300085B09C4610AB1B78149F934698460F9C11
:10354000129E139DBB074CD4002D42D1B44248D2E9
:1035500001233B4099460E9B013B9A46302304E0F1
:10356000524601341355A64201D9202CF8D14B46BE
:10357000002B00D183E00E9B013B99463023A542EE
:1035800005D82EE04A4601341355AC4229D0202CF0
:10359000F8D1FB060CD57B0554D4A64263D0A542D6
:1035A00061D0119B102B50D0022B57D0202C32D140
:1035B000202301930E9B5A4600930397634602957E
:1035C000FFF75AFF05B0F0BCBB46B246A946A0467D
:1035D000F0BD01233B40994601233B422AD1B4422E
:1035E000B9D3FB061CD57B05DBD4002CD5D1119BB0
:1035F000102B5BD0119B022B6BD0302301240E9A31
:1036000013704346002B10D17B073ED52B260E9A14
:10361000631C1655CDE72300013430260E9AD6548C
:10362000202CC5D04346002BEED02D260E9A631CCD
:103630001655BEE74346002B2FD0013DB44200D2C1
:1036400089E798E7119B102BB2D1BB0637D5202C08
:10365000AED058230E9A13550134A7E7202CA7D0DB
:103660002300013407E0631E012CC0D0119A102AF8
:1036700031D0022AD1D162260E9AD65496E7FB06A3
:10368000CED57B0500D488E78BE723003E0790D595
:1036900020260E9A013316558BE70C233B405A1E09
:1036A0009341ED1AB44200D255E764E7BB060ED44D
:1036B00078230E9A0224137030235370A1E7202C34
:1036C00000D175E778230E9A135501346EE758231D
:1036D000EFE76033EDE70E9AA61E91464E44BA0618
:1036E00002D55822327098E77822327095E7C046AA
:1036F00010B5002800D110BD01F0ACFCFBE7C046BE
:103700000B0010B5002802D049681B68984710BD0F
:10371000F0B55746DE464E464546E0B595B0834681
:103720000F00924698461E9A1F9B10001900209E7B
:10373000FFF7AFFC002800D0EAE11E981F99012294
:10374000C54B5242FFF78AFC002800D014E11E98B6
:103750001F990122C14B5242FFF796FC002800D06E
:10376000E9E01E981F990022BD4BFFF78DFC002851
:1037700000D0C8E01E981F990022BA4BFFF76EFCDC
:10378000002800D0BFE01E981F9900220023FFF7F9
:1037900065FC002800D0E4E000230B93229B5B052E
:1037A00000D406260024302307E0172106AA01349E
:1037B00052181355013E202C01D0092EF5D81E9821
:1037C0001F99FFF78FFCA84BF2009B181A685B68E3
:1037D000050008920993FFF76DFC02000B001E988C
:1037E0001F99FFF7D8FB089A099BFFF7F8FB069093
:1037F0000791FFF79BFC8146FFF758FC02000B0086
:1038000006980799FFF7C7FB0022984B069007918F
:10381000FFF73AFC002800D10DE101239C46E1446A
:103820004846FFF743FC02000B0008980999FFF790
:103830001BFC002802D0002399460135002E00D140
:10384000D9E006954D46B94614E006AA94461723DA
:103850000A216344280001341F19FFF761F9303150
:10386000397028000A21013EFFF75AF9092D00D8C6
:1038700017E10500202CE8D14F46069D20240CAE10
:1038800006AA17239446634499465B46B3460693BB
:103890000FE04B4628000A210134E618FFF718F91B
:1038A0003031280031700A21FFF712F9051E00D1CE
:1038B000E4E0202CEDD1069B5E469B460323229A32
:1038C0001340012B18D1219B002B15D00B9B002BF3
:1038D00000D1FDE0219B013B2193202B0CD930230B
:1038E000219A07E0172006A9013409180B559442C4
:1038F00000D3CCE0202CF5D1229B01940393219B93
:103900000096029322E0229B52460493219B3900A9
:10391000039358461E9B1F9C0296009301944346B6
:1039200000F04AF90400200015B0F0BCBB46B246D6
:10393000A946A046F0BD229B5B070FD403224C4B47
:103940002299019203912199009302914346524694
:1039500039005846FFF790FD0400E4E70422454B88
:10396000EEE71E9A1F9B00200021FFF714FB0123A6
:103970001E901F910B9311E7229B54469B0711D178
:10398000219B042B0ED9219B55469C465E46043C48
:1039900064442A004346013539002020B047A5423F
:1039A000F7D1B346344D26002B1F99465B46A346FC
:1039B0001C003200E87843463900013DA04701363B
:1039C0004D45F6D123005C469B46229B04349B0761
:1039D000A9D55346219AE31A9A42A4D95E46150006
:1039E0002200434639002020B04753460134E31AF1
:1039F0009D42F5D897E72800FFF75CFB02000B001B
:103A00001E981F99FFF7C7FA0022184B06900791DE
:103A1000FFF724FB0CAE002800D031E70698079989
:103A20000022124BFFF730FB002800D028E70123CB
:103A300001359D4324E70022069807990B4BFFF7B9
:103A40000DFB002800D0F9E64B46002B5CD101238A
:103A50009C46E144F2E6C046FFFFEFFFFFFFEF7F29
:103A600065CDCD4165CDCDC198EC01100000E03FA2
:103A7000B8CA0110B0CA0110C0CA0110069B5E4648
:103A80009B460323229A1340012B00D181E0202C76
:103A900000D131E70B9B002B27D02D233355013468
:103AA0002AE74F46069D202C00D1E7E63022331945
:103AB00007E0172006A9013409180A55202C00D167
:103AC000DCE6A342F5D12E220CAE0134F254D7E647
:103AD0000C23229A134257D0219B013B2193A342EE
:103AE00000D9FCE6202C00D106E7229B5B0703D51A
:103AF0002B2333550134FFE6229B1B0700D4FBE642
:103B0000202333550134F7E6DB0700D496E69EE721
:103B1000229B55469B0711D1219B032B0ED9219B3C
:103B200054469C465E46033D6544220043460134AC
:103B300039002020B047AC42F7D1B346B9465F46C2
:103B40001C4EEC1C2A00B078434649460135B84764
:103B5000013EAC42F6D1229BBB464F469B0700D4A8
:103B6000E1E65346219AE31A9A4200D8DBE65E4624
:103B700015002200434639002020B0475346013447
:103B8000E31AAB42F5D3CEE6219BA34200D9A6E6C9
:103B9000B2E6219B002B00D179E70B9B002B97D03D
:103BA000219B013B21939C4200D298E6202C00D01F
:103BB00073E7A1E6BCCA0110F0B5DE4657464E4693
:103BC0004546E0B599B081468B4692469846229A82
:103BD000239B10001900FFF75CFA002800D0CAE010
:103BE000229823990122824B5242FFF74DFA002876
:103BF00000D0C0E02298239901227E4B5242FFF769
:103C00002DFA002800D0B6E0229823990022002344
:103C1000FFF724FA002800D0C9E1229B239C0893D7
:103C20000994089809998023269ADB001A400D927E
:103C30008022269C1201144022000B94269C07002F
:103C40000E001C4200D0ADE00B00034300D0D5E0D5
:103C5000002A00D00AE222000633249302231340F4
:103C60000C930223134200D002E2259B042B00D2C6
:103C70000FE2043B0B93002304250A9300222298B1
:103C800023990023FFF7EAF9002800D003E25A4BFA
:103C9000269A134004930B9B0393249B0293089B47
:103CA000099C009301945946434652464846FFF703
:103CB0002FFD02002020269B1F27034059424B4125
:103CC0005B421840531C0893594643464530C84749
:103CD0000A9AD317D4185C40D30F0A936B1E0B9328
:103CE00008AB9C460025674401E0202D0FD0200042
:103CF0000A21FEF715FF01357E19303131702000A1
:103D00000A21FEF70DFF26000400092EEDD8052339
:103D100006930B9B59460593002304930A330393A0
:103D20000A9B4846029310AB0093089A43460195BC
:103D3000FFF7F8FB0C9B002B2DD05346C41A259B94
:103D4000A34228D94D465F4681461E00534639009E
:103D50001A19202043460134A847A642F6D85346F4
:103D600048462599C21A01320023914200D386E1C8
:103D7000013018180FE0269B0493259B0393249B86
:103D80000293229B239C009301944346524659463A
:103D90004846FFF7BDFC19B0F0BCBB46B246A94689
:103DA000A046F0BD01432BD10B9B2200002B00D17C
:103DB00054E700230A93249B0A9A0024934200DDCF
:103DC00085E12298239900220023FFF747F9002874
:103DD00000D035E1269B084A02941A408023DB007C
:103DE00013430493259B0393089B099CCBE7C04690
:103DF000FFFFEF7FFFFFEFFFFFF7FFFF0623249397
:103E0000B44B70009C46400D6044FFF753F9B24A32
:103E1000B24BFFF7E4F8B24AB24BFFF7C1F83603F2
:103E2000B14B360B334304000D003800190000225B
:103E3000AE4BFFF7B0F8AE4AAE4BFFF7D0F802003A
:103E40000B0020002900FFF7ABF8FFF74BF90A90B1
:103E5000FFF730F9A84AA94B04000D00FFF7BFF89F
:103E60000022A74BFFF79CF8FFF73CF9A54A060094
:103E7000A54B20002900FFF7B2F8040030000D0028
:103E80000C96FFF717F9A14AA14BFFF7A8F802001B
:103E90000B0020002900FFF77EF802000B0006004F
:103EA0000F00FFF79CF8320004000D003B003000CB
:103EB0003900FFF775F800220E900F91954B200006
:103EC0002900FFF772F80022934BFFF769F8020010
:103ED0000B0020002900FFF768F800228F4BFFF746
:103EE0005FF802000B0020002900FFF75EF80D00CC
:103EF0008021040032003B000020C905FFF74BF889
:103F000002000B0020002900FFF74AF802000B0016
:103F10000E980F99FFF749F80022734BFFF740F80E
:103F20007F4B0C9C9C46644400222305FFF757F806
:103F300006000F0002000B0008980999FFF78EF8A1
:103F400000280AD00A9B3000013B39000A93002266
:103F5000714BFFF72AF806000F000A9A330063320C
:103F60003900C62A12D802222698042510400B9A3E
:103F70000C90002A25D1259B042B05D9002800D0C0
:103F8000A1E0259B043B0B93042541E002222698E7
:103F900010400B9A0C90002A12D1259B052B76D944
:103FA000002872D1259B0525053B0B9334E0802228
:103FB00012069446229B0893239B6344099330E6A0
:103FC00005250B4300D1F6E608980999554A564B4A
:103FD000FFF752F8002808D0089809990022534B9F
:103FE000FFF73CF8002800D0E5E6249B002B1CD00E
:103FF0000D9B002B19D0249B013B2493259BAB42A6
:1040000004D90C9B002B5AD002230C9300230B9352
:104010000A9B002B00D131E60898099932003B0039
:10402000FEF7C3FF0890099128E6259BAB42EDD926
:104030000C9B002B43D000230B9302330C93E7E738
:104040008020269B3A4A00061A4080238446029428
:10405000089C099D2900DB0013430493259B6144C0
:10406000220003930B00009201938EE60524A8E63C
:1040700000230B930A93023304250C93FEE5534669
:104080008C46013B63441B1A72E602230C93052500
:10409000C2E70423EDE58020089E099F0006390051
:1040A0008446269A224B6144134004930B9B3200B2
:1040B0000393249B02930B0000920193F3E5259B4D
:1040C0005B1B0B93A4E7022304250C93A0E79C1A27
:1040D000013C76E601FCFFFFFB799F501344D33F80
:1040E000B3C8608B288AC63F0000F03F0000F83F4D
:1040F00061436F63A787D23F71A379094F930A4049
:104100000000E03F1655B5BBB16B0240EF39FAFE37
:10411000422EE63F00002C400000244000001840E2
:10412000FF0300002D431CEBE2361A3F80842E4132
:10413000FFF7FFFFF0B5DE4657464E464546E0B571
:10414000A5B01E002E9B92460C93CD4ACD4B8046C7
:104150008B461A60002900D1EAE1002330789946A5
:10416000002800D1ECE1C84B4C460B93C74B4546A9
:1041700057460E930AE0631C984622003B005946BE
:10418000A84744463078002800D187E0013625282A
:10419000F1D108239A46043B9946023B9846013BDD
:1041A00000229C460D943078711C0300203BDBB24A
:1041B000102B03D80B9C9B00E3589F460300303B19
:1041C00089460D9C092B3AD9002398462A2800D10C
:1041D000C1E000239A462E284BD00300683BDBB297
:1041E000122B1ED80E999B00CB589F4663460E009B
:1041F0001A43D8E743460E001A43D4E74B460E0055
:104200001A43D0E710230E001A43CCE753460E00A2
:104210001A43C8E780235B001A43FF3B9C46707833
:10422000E1444E4667284FD82428A4D90300253BF3
:10423000DBB2422B9FD896499B00CB589F46002368
:1042400094461E0000E00131B3009B195B001E186C
:104250000878303E0300303B092BF4D90123624635
:1042600089469C460023B0469A460E00E1442E281B
:10427000B3D13021802049428C46C000024370787F
:104280004B4684446146092900D86CE12A2800D1B4
:104290007AE101239C464E46E1449EE7A146A846AA
:1042A000BA46CA4503D801235B4253449946534654
:1042B0004A4659460020C047200025B0F0BCBB4606
:1042C000B246A946A046F0BD0300693BDBB20D93A0
:1042D0000F2B00D94FE7012199408C466D49894643
:1042E00061464B4619400F91634649460B4200D048
:1042F00028E10D9B0A2B3AD0072B00D03BE70C9B03
:10430000190008C98846002B00D14BE12120024347
:10431000914614A98C461F220F2162448C465146B7
:104320000D950C91A24615000F9902E020290CD0A2
:10433000130064461C4020003730092C00D8073891
:10434000013168541A090F2BF0D80C9B54460D9D6F
:104350009A460F9133E10C9B02CB8846002947DB3C
:104360000C9301239C4670784E46E14431E70C9B48
:1043700002CB14935346002B00D138E19C460878B9
:104380000B000C908C44002801D100F098FC894669
:104390006146944603E05A780133002A01D08B42EB
:1043A000F9D1494662465B1A0C900F93530500D52C
:1043B00020E10223180010400D90134200D1CBE3FE
:1043C0000D930B1BB1469A465E460C9822003B00AB
:1043D0003100A84753460134185D0028F6D1B34692
:1043E0004E460D9B002B00D0C7E1149B0C93C9E6F1
:1043F0000C9301239C462838494202438846707832
:104400004E46E144E5E670786C2800D17FE18023D8
:104410005B001A43FF3B9C46E14402E780239B007C
:104420001A4301239C467078E144FAE670786828C4
:1044300000D173E180231A437F3B9C46E144F0E6C0
:10444000672800D103E1472800D15AE1452800D16F
:104450005AE10492072142460C9B039207335246CD
:104460008B43190002920CC92800009201930C9111
:1044700022003B005946FFF79FFB040082E6C0463E
:1044800035410010BC370020FCEA011040EB011060
:104490008CEB011041900000462800D1DBE0049233
:1044A000072142460C9B0392073352468B43190067
:1044B00002920CC92800009201930C9122003B004B
:1044C0005946FFF725F904005CE6631C9846220074
:1044D0003B0059462520A847444653E60C9B04332D
:1044E0000D93631C9946920700D422E10C9B220095
:1044F000187859463B00A84743464444012B00D84E
:1045000085E23300B8462E005F4625004C469946AA
:1045100022004346013439002020B047AC42F7D195
:104520002C00BB46350047464E460D9B0C9329E6B2
:10453000DB4B3078984600239946002800D012E6DD
:104540000024AEE66F2800D188E000D80BE31023EA
:10455000782800D1CFE09A430A239C4600230F938A
:104560000A330D9380E05646B100891949000133A2
:104570000E181878303E010030390929F4D9B246B6
:104580001E000133994628E60C9B023602CB8A4670
:10459000C9435046C917084082460C933078731CB3
:1045A00099461AE6102310009843113318438146A8
:1045B00080201300C0000340024200D1A9E64B4610
:1045C0000693082305935346049310230393002373
:1045D00002930F9B220001931CAB009359463B00B2
:1045E0002800FEF79FFF434604000C93CAE5012311
:1045F0005B42C3E60F9B534501D953460F930223F9
:10460000180010400D90134200D1B7E10D93D14630
:104610000B1B9A463300A1442E0022004D460C98F5
:10462000B9465F469B4608E04B463900541CB047EC
:104630005346185D002877D022009542F4D15B469E
:10464000BB464F46A94635004C461E00C9E68023AE
:104650001B011A43FDE620231A4320E708239C464A
:1046600000230F9308330D9380231100DB001940C2
:104670001A4200D116E10D239A4310008023020054
:104680009B001A401492184200D0C2E1802302001D
:104690005B001A4091460C9A04320F92184200D0E7
:1046A000B7E2430600D59FE1030600D419E30C9B53
:1046B0001B880993002B00D0FCE11033984300299C
:1046C00000D1F7E1002399464346059353460493EE
:1046D0000D9B069003930023D2E0582808D062284F
:1046E00067D102239C4600230F9302330D93BBE74F
:1046F00020231A43103B9C4600230F9310330D9345
:10470000B2E780231B011A4320231A43A1E6C023EA
:104710009B001A43F31C9946B07882E5C0231A43E4
:10472000F31C9946B0787CE535005E46BB464F46A3
:1047300057E64346012B00D863E1631E43449A4683
:104740003300B9462E005F4655469B46A2462200DE
:104750004B46013439002020B047AC42F7D1350038
:104760005E46BB464F46A14654460C9B4A461878C7
:1047700059463B004444A847D7E6A1460F9B9845BD
:1047800000D832E64444E41A3300B8462E005F46AF
:1047900025004C469946220043460134390020202A
:1047A000B047AC42F7D12C00BB46350047464E46D9
:1047B0001BE680231000DB0018401A4200D10FE1F5
:1047C000112118008A430D920D9A802311009B003D
:1047D00019408C461A4269D1802311005B001940B0
:1047E00089460C9904310F911A4200D0CAE1130096
:1047F0005B0600D5F0E013001B0600D459E20C9BC9
:1048000000229B5ED9175A184A4092B2D90F0C91D8
:10481000002B00D1F9E1100014AA944642461F2350
:10482000149252466344A84616944D460400B94675
:10483000B2461F00159201E0202D0FD020000A2162
:10484000FEF76EF901357E193031317020000A21F2
:10485000FEF766F926000400092EEDD8149B4F469A
:10486000A94645469846159B56469A46169C0D9B6A
:10487000069343460593534604930A2303930C9BE4
:1048800002934B4601931CAB2200009359463B0018
:104890002800FEF747FE0F9B04000C9372E4C0460D
:1048A000753400100C239A431000E7E607220C9B96
:1048B00007339343013294469C4462460C920CCBDE
:1048C000D90F0F911100194300D191E0D91713911D
:1048D00012915140109113995940119110981199CA
:1048E000129A139B801A99411090119114AA0023D7
:1048F000944642469946149252461F336344A84652
:10490000B24616944E46109C119DB94615921F0052
:1049100001E0202E10D0200029000A220023FEF7FB
:104920003DF9013630322B00BA550D00220004004B
:10493000002BEED1092AECD8149B10941195454612
:104940009846159B4F46B14656469A46169C0D9B77
:10495000069343460593534604930A2303930F9B00
:1049600002934B4601931CAB2200009359463B0037
:104970002800FEF7D7FD0400FFF704FC0F9B9845C5
:1049800000D8C1E18023DB000D9343460F9A1B1929
:104990009B1A994633002E004D46B9465F469B460A
:1049A0000C9122004B46013439002020B047AC4224
:1049B000F7D143460C9901330F930B7835000C93D4
:1049C0005E46BB464F46002B00D10EE50D9B002BEB
:1049D00000D1F6E4002319E60C9B1B781A0015E7BA
:1049E00010239A430D92EFE60C9B1B78099361E626
:1049F000002399460028AAD1002200231092119387
:104A000074E70C9B2200187859463B00A8474C4697
:104A10008BE50C9AFA3BFF3B07329A4301339946E8
:104A200091444B460C931368526815921A4306D171
:104A30001032904300220992002900D081E06122C7
:104A4000810600D54122D2B20A9214AA91460A9A4E
:104A500000210A3A149242461792524618925A4638
:104A60000991B3461F311E000F9B4944BA46199461
:104A70001A950024674698468946159D16901B9204
:104A80000AE03032D2B24B4601341A55A8454AD01A
:104A9000202C4AD006000D003A00002330002900E7
:104AA000FEF77CF8D2B2092AEBD9149B9C466244EB
:104AB000D2B2E8E76123820600D54123DBB20A3B8C
:104AC0000C93434614A91F228C4615935346624407
:104AD000A046B2464C461797A9461700099D0D9E61
:104AE0001490169308E03033DBB201343B55B542E5
:104AF0000ED3202C0CD0050031002800FEF710F852
:104B0000CBB20929EFD90C9A94466344DBB2ECE7A7
:104B1000159B4D46A14644469846169B564614980A
:104B20009A46179FD0E5B742B2D9179B5746984689
:104B3000189B5E469A461B9B09949B461698199CA7
:104B40001A9D43460593534604930D9B0690039389
:104B500000230293099B05E70F9B984500D914E7B2
:104B600001330F932DE41023110099430D9169280F
:104B700000D0BAE080231000DB0018401A4200D1B8
:104B800022E61DE60C9B1B68DA0F1100002B00D1FA
:104B90008CE0DA179818504014AA914642461F2319
:104BA000149252464B44A046A94616970400654607
:104BB000B2461F000C91159201E0202D0FD020006D
:104BC0000A21FDF7ADFF01357E193031317020002B
:104BD0000A21FDF7A5FF26000400092EEDD8149B3D
:104BE000444698460C9BAC461900159B56464D46CC
:104BF0009A46169F0D9B0291069343460593534692
:104C000004930A23039363463CE6002800D02EE673
:104C100002E60C9B1B689946002B03D11033984386
:104C2000002938D16123820600D54123DBB20A3B3B
:104C30000C9343461693534614A91F228C46179390
:104C40002B006244A0464D46B2461897994617007D
:104C5000149C0D9E159008E03033DBB201343B55B7
:104C6000B5420ED3202C0CD0050031002800FDF7F2
:104C700057FFCBB20929EFD90C9A94466344DBB2B3
:104C8000ECE7169B149444469846179B56464D46AF
:104C90009A461598189F43460593534604930D9BD7
:104CA0000690039300230293149BEBE50028A1D107
:104CB00072E70C9B1B68D9175A184A40A6E5802357
:104CC0001000DB0018409C460F901A420FD00220C3
:104CD000030013400F93104219D00023A1460F93F5
:104CE0004CE50C9B1B680993E4E40A0034E40223BE
:104CF000180010400D90134200D03EE54346002BB3
:104D000000D042E6FFF771FB01330F937FE4634667
:104D10000D93F3E70CB430B585B008AC08CC064D64
:104D20000A000094010028000394FFF703FA05B07D
:104D300030BC08BC02B018476D34001010B50C0030
:104D400084B00394012402A9029000930348130045
:104D50006242FFF7EFF904B010BDC0460137001002
:104D600010B5094A0300146884B0002C08D0012251
:104D700000910648524203A9A047012004B010BD8B
:104D800000F0B2F90020F9E7BC370020F13600103E
:104D900000BEFDE7094A03001068002805D0084955
:104DA000C3188B4207D81360704706480449C318DC
:104DB00010608B42F7D901204042F5E78C33002088
:104DC0000000042080E6022010B5FFF7E1FFC04696
:104DD00070B5FDF79FFD074D074EB54209D200247F
:104DE000013E761BB60808CD984723000134B34234
:104DF000F9D170BDACC40110B8C40110030010B5E6
:104E0000080011001B68984710BDC046F0B5C646A3
:104E100000B5437D07000C001600002B46D0002A89
:104E200017DD0B780A2B24D000239846012E13D0CF
:104E300001252900635C01350A2B26D0B542F8D143
:104E4000464509DCA419013C23780D3B5A425341E5
:104E50003B7580BCB846F0BD4346E018A419F11A72
:104E6000013C3B68984723780D3B5A4253413B75C0
:104E7000EFE7037D002BD7D102210F483B6898470D
:104E8000012EDFD001239846D2E7631E5B5C0D2B19
:104E9000D4D0884504DA4346C91AE0183B689847DD
:104EA000022105483B68A8469847C7E703681100F8
:104EB00020009847CDE7C046E8EC0110F0B5C646A3
:104EC0000B6806000C0000B5802B06D05A1C22602F
:104ED000E418267180BCB846F0BD0F4B1D68002D4C
:104EE00016D00B1D98460D4F02E02D69002D0FD0F6
:104EF0002B68002BF9D03B68002B01D0AB42F4D1DA
:104F0000280041462268FFF781FF2D69002DEFD16F
:104F100001220023DBE7C0467C33002088330020D9
:104F2000F0B54546DE464E465746E0B583B091465D
:104F30001C0080460D00FDF7D7FA0023304A1218F6
:104F40004B41002B02DA01222E4B52422E4908001F
:104F50008A4617F045FA07006B1C03D1404617F04C
:104F60006DF80500002C27D0284E294B1C68002C1A
:104F700018D04B46002B21D1264B994602E02469DC
:104F8000002C0FD02368002BF9D04B461B68002B58
:104F900001D09C42F3D120002A004146B047246949
:104FA000002CEFD1002F26D1280003B0F0BCBB4667
:104FB000B246A946A046F0BD174ED6E7154B994616
:104FC0000A239B4602E02469002CEBD02368002BC7
:104FD000F9D04B461B68002B01D0A342F3D12A0025
:104FE00041462000B0476B465A462000DA71D91D71
:104FF0000122B047E7E7504617F0B2F9D4E7C046C0
:1050000040420F00FFFFFF7F381800200D4E0010B8
:105010007C33002088330020FD4D00100A4A1368BD
:10502000002B05D10CE01A001B691032002B07D0B1
:105030008342F8D1002902D11869106019617047C4
:105040000029FCD01060FAE77C33002010B500F096
:10505000F1FA10BDF0B5CE46474680B583B06B4639
:105060000600DD1D2870FDF73FFA0023194A1218CB
:105070004B41002B02DA0122174B5242174908001C
:10508000884617F0ADF9164B81461C68002C14D0E9
:10509000144F02E02469002C0FD02368002BF9D0B4
:1050A0003B68002B01D09C42F4D120000122290052
:1050B000FFF7ACFE2469002CEFD14B46002B05D145
:1050C000300003B0C0BCB946B046F0BD404617F052
:1050D00047F9F5E740420F00FFFFFF7F3818002037
:1050E0007C3300208833002070B5040016F0A6FF42
:1050F00001230100050001222000FFF711FF084BEA
:105100001C68002C06D06368002B05D098472469E2
:10511000002CF8D1280070BD2469002CF3D1F9E7E8
:105120007C330020F0B5CE46474680B5A3B00400DE
:105130000D00FDF7D9F90023274A12184B41002B27
:1051400002DA0122254B5242254E300017F048F971
:1051500000232200019307002B00224801A9FFF73A
:10516000EDFD214B804699461C68019B002B1AD00F
:10517000002C2FD01D4D02E02469002C0FD0236895
:10518000002BF9D02B68002B01D0A342F4D12000D2
:10519000019A02A9FFF73AFE2469002CEFD14B4691
:1051A0001C6800230193002C06D06368002B0BD0F1
:1051B00098472469002CF8D1002F07D1404623B02E
:1051C000C0BCB946B046F0BD2469ECE7300017F02A
:1051D000C7F8F3E70194EFE740420F00FFFFFF7FBE
:1051E00038180020BD4E00107C330020883300208A
:1051F0000FB400B583B004A901C90191FFF792FF74
:1052000003B008BC04B018477047C0460022014BE9
:105210001A70704771E602204B790020FF2B0BD1EA
:105220008B79002B08D1CB79012B05D1082A03D922
:10523000024B8A7809301A707047C04671E6022026
:105240000120704710B5012913D112495379107903
:1052500009781B0203430020994200D010BD537807
:10526000012B08D0022BF9D1642200210020FDF788
:105270009BFA0120F2E7D37891781B021943480A80
:10528000DB0501D4012040427F238A05D20F19405B
:10529000FDF712FB71E6022000487047B4ED0110E3
:1052A00070B5050014000120012909D153780020B0
:1052B000012B05D1637912791B021343072B00D010
:1052C00070BD21002800024A9F3301F063FAF7E71E
:1052D0000CED01100123037000487047ECEC011045
:1052E0004B780A781B0213438A7810B512041A43CC
:1052F000CB781B0613439622D200934200D010BDF8
:105300000022012011004042FDF7D6FA024B18603E
:10531000024B19607047C04690240020942400205E
:1053200010B5024B1878FCF723F810BD72E6022086
:10533000154B70B51A68002A22D0EFF3108172B6AF
:1053400010680028FCD0BFF35F8F00200F4A59601F
:1053500010701B68BFF35F8F186081F31088002402
:1053600000250B4E3078FBF7F7FF002804D100240E
:1053700000252900200070BD3078FBF7F9FFF8E721
:10538000FA240025A400ECE77CD1002074E602207A
:1053900072E6022070B5040000200E0001F018FB38
:1053A000002834D0002001F029FB00282FD0FDF781
:1053B0009BF80023174A12184B41002B16DB164DA1
:1053C000280017F00DF8002821D0002001F000FB84
:1053D00000280FD101200021404200F00FFD0324DE
:1053E0006442280016F0BCFF200070BD01220B4B68
:1053F0005242E4E7002001F001FB0028EAD021003E
:105400003200002001F004FB041EEAD1E7E7032488
:105410006442E9E740420F0018E50020FFFFFF7FEC
:1054200010B5FDF761F800230D4A12184B41002B0F
:1054300002DA01220B4B52420B4C200016F0D0FF37
:1054400000280CD001200021404200F0D7FC0020B1
:1054500001F022FB0028F5D1200016F081FF10BDDD
:1054600040420F00FFFFFF7F18E50020F8B5DE4641
:10547000574680B505000C00FDF736F80023364A84
:1054800012184B41002B02DA0122344B52423449AC
:1054900008008A4616F0A4FF002803D1C0BCBB4612
:1054A000B246F8BD002001F093FA00284AD0002649
:1054B000002C43DD2B4B9B4614E0A919002001F082
:1054C00025FB070001200021404200F097FC00204E
:1054D00001F0E2FAFDF708F8224BF619186059605E
:1054E000B4422BDD002001F031FBA71B0200B842C3
:1054F00000DD3A00002AE0D101200021404200F006
:105500007DFC002001F0C8FA002001F061FA0028BB
:1055100014D0002001F01AFB0028E1D1FCF7E4FFD1
:105520005B460F001A685B68002184460E4812181B
:105530004B419F4202D8D3D19445D1D9504616F061
:105540000FFFABE700200021064B18605960504662
:1055500016F006FFA2E7C04640420F00FFFFFF7FA4
:1055600018E50020101A002020A1070030B52A4CB1
:1055700085B00021200016F023FF00281CD1274B06
:105580001A68002A16D0EFF3108172B6106800284E
:10559000FCD0BFF35F8F01242148596002781B685B
:1055A000D2B20470BFF35F8F0020186081F31088BF
:1055B000002A17D005B030BD01200021404200F084
:1055C0001DFC002001F01AFA0500200016F0C8FEAC
:1055D000002DEFD0134B1B68002BEBD0124A106844
:1055E0009847E7E7FCF7F2FB0400FCF77DFFFA229F
:1055F0000023920012184B41002B02DA01220B4BC0
:10560000524201210291002101910949200000919B
:10561000FCF762FCCEE7C04618E500207CD10020F4
:1056200074E602209024002094240020FFFFFF7FD6
:1056300031530010D02310B51B0684B01C68FCF752
:10564000C5FBFCF743FDA04202D0002004B010BD12
:10565000294B002100201B7801F06CFD27480368CE
:10566000002B45D00120FCF723F9FF23244C2549CA
:1056700020701840FBF796FE20780121FBF75AFEB8
:105680000520FBF77DFE002824D1082200211E48BA
:10569000FDF7E0FEFCF79AFB0400FCF725FFFA2279
:1056A0000023920012184B41002B02DA0122174B03
:1056B00052420121029100210191154920000091DF
:1056C000FCF70AFC0028C0DB12480121FFF7A6FC0A
:1056D0000120BBE70120FBF7FBFD0B4B010018008D
:1056E000FCF76AF9002205200B49FBF785FEEBE782
:1056F000FCF736F9B6E7C0466069051018E50020EA
:1057000072E602206D5500107CD10020FFFFFF7F64
:1057100031530010301200202153001010B500202A
:1057200001F056F910BDC0460048704750EE011018
:1057300000487047FCED011010B5040017480378CD
:10574000002B20D0002C06D1154B16484380063B79
:10575000FF3B038010BD052C1DD8134BA400E0585F
:1057600012490123013804E001330A800231142B6D
:105770000DD0C25C002AF7D1C022DBB25B009200E0
:1057800008481343E5E7112100F022F8DAE7CA23BD
:1057900004489B00DDE70020DCE7C04650E502201E
:1057A00009040000802E0020E4ED0110822E00206C
:1057B00010B5024800F0E0F810BDC04604E4002037
:1057C00010B508220149FDF74BFE10BD04E400208E
:1057D00030B54B1E012900D1A7E0664A11780D09AA
:1057E0002C0030349F2900D9A2E00470012B00D195
:1057F000BEE00F21147821400C003034092900D973
:1058000098E04470022B00D1B2E0547825092900B9
:1058100030319F2C00D990E08170032B00D1A7E09C
:105820000F2121400C003034092900D987E0C470D1
:10583000042B00D19CE094782509290030319F2C5D
:1058400000D97FE00171052B00D191E00F212140AB
:105850000C003034092900D976E04471062B00D1C0
:1058600086E0D4782509290030319F2C00D96EE0DC
:105870008171072B00D17BE00F2121400C003034D7
:10588000092966D8C471082B00D171E01479250963
:10589000290030319F2C5FD80172092B68D00F216D
:1058A00021400C003034092958D844720A2B5FD0AB
:1058B00054792509290030319F2C52D881720B2B45
:1058C00056D00F2121400C00303409294BD8C47226
:1058D0000C2B4DD094792509290030319F2C00D90B
:1058E000073101730D2B43D00F2121400C003034C0
:1058F000092901D937310C0044730E2B38D0D179E6
:105900000C09220030329F2900D9073282730F2BF5
:105910002ED00F220A4011003731092A01D8303227
:105920001100C173102B23D010300023037030BD41
:1059300007345AE737310C0063E707316CE737313A
:105940000C0074E707317DE737310C0085E707313C
:105950008EE737310C0095E707319DE737310C00B2
:10596000A3E70731AAE737310C00C4720C2BB1D181
:10597000C018DAE704E4002010B588B004000D2256
:1059800000216846FDF766FD0D22002104A8FDF701
:1059900061FD4B236A466846137004A90D2216F078
:1059A000D7FC1521082220006944FDF759FD08B0F5
:1059B00010BDC046F8B500F047F90C23194DFF2281
:1059C000AB6705201849FBF717FD184C4022002152
:1059D0002000FDF73FFD4027002301262121144A26
:1059E00066702783A260136063545F316184453918
:1059F0006354104A10496360E2602787A1620B601C
:105A00006362E26216F01CFD80239B052E64EB644A
:105A100090230A4A0120EA508022094B5202DA649C
:105A2000F8BDC04600001150D5060020903300207C
:105A300084001050000110508000105010D0010060
:105A40000020115010B501210520FBF773FC10BD9B
:105A500010B500220021024800F016F910BDC04622
:105A6000B0330020044B1970002904D0802190230A
:105A7000024A8902D150704767E602200020115087
:105A80000B785B0602D14B78052B00D070478A78E3
:105A9000014B1A60FAE7C04600001150F0B5C64647
:105AA000C87800B58007830F1800012B60D08F786D
:105AB0000A794B797F213940FC091B024E001343C0
:105AC000334D32195201AA18977001276740577059
:105AD00000275B055B0DD7701383D076B846CA00EC
